:020000022000DC
:1060000000000120756302005D6302005F6302000F
:106010006163020063630200656302000000000028
:1060200000000000000000000000000067630200A4
:1060300069630200000000006B6302006D630200F0
:106040009D9302006F630200A1970200259E02004B
:10605000359E02006F630200559602006F630200D6
:106060006F6302006F6302006F6302006F630200E0
:106070006F6302006F6302006F6302006F630200D0
:106080006F630200297702006F6302006F630200F2
:106090006F6302006F630200F1E502006F630200AC
:1060A0006F6302006F6302006F6302006F630200A0
:1060B0006F6302006F630200000000000000000038
:1060C0006F6302006F6302006F6302006F63020080
:1060D0006F6302006F6302006F6302000000000044
:1060E00000000000000000000000000000000000B0
:1060F00000000000000000000000000000000000A0
:10610000000000000000000000000000000000008F
:10611000000000000000000000000000000000007F
:10612000000000000000000000000000000000006F
:10613000000000000000000000000000000000005F
:10614000000000000000000000000000000000004F
:10615000000000000000000000000000000000003F
:10616000000000000000000000000000000000002F
:10617000000000000000000000000000000000001F
:10618000000000000000000000000000000000000F
:1061900000000000000000000000000000000000FF
:1061A00000000000000000000000000000000000EF
:1061B00000000000000000000000000000000000DF
:1061C00000000000000000000000000000000000CF
:1061D00000000000000000000000000000000000BF
:1061E00000000000000000000000000000000000AF
:1061F000000000000000000000000000000000009F
:10620000354936480A1A02D0072291438D4634494F
:1062100034480A1A06D00722914381F309880222E2
:1062200082F3148830483149314A00F044F831484B
:106230003149324A00F03FF831483249324A00F0E1
:106240003AF832483249334A00F035F83248334997
:10625000334A00F030F833483349344A00F02BF821
:1062600033483449344A00F026F83448344900228F
:1062700000F02CF833483449002200F027F8334866
:106280003349091A082902DB002202604160314AC1
:1062900090471F481F49884205D00268043003B464
:1062A000904703BCF7E700208646EC46002000211B
:1062B000294A9047FEE7884207D0521A05D0037852
:1062C00001300B700131013AF9D17047884202D098
:1062D00002700130FAE770470000012000E0002062
:1062E0000000012000000120C81B030084220020C0
:1062F000BC220020D0630200D063020016F5020029
:10630000C81B03008422002084220020A8F602007B
:10631000A8F60200A8F60200A8F60200A8F60200FD
:10632000A8F60200A8F60200A8F60200C61B0300A9
:10633000001C0300BC220020BC220020BC22002044
:10634000C1350020C4350020C4350020C4350020EC
:10635000C45500209D63020069DF0200FEE7FEE7EE
:10636000FEE7FEE7FEE7FEE7FEE7FEE7FEE7FEE705
:1063700000F002B8FFF7FCBF0F484FF00701884359
:1063800085460E4880470E48016841F4700101605F
:10639000BFF34F8FBFF36F8FFFF732BF09480A4932
:1063A0000A4A884207D0521A05D0037801300B7090
:1063B0000131013AF9D1704700000120998F0200A4
:1063C00088ED00E094F60200702200208422002074
:1063D0007047000007B5044B0093044A402300F0C7
:1063E00032F803B05DF804FBF1630200BD22002027
:1063F0002DE9F84388461446B2B10F4B0F4E0325E2
:10640000002743F00109224608EB0701002007F0AE
:10641000BFFF0744241A48B933782BB14FF47A40B0
:10642000C847013D02D13570BDE8F88301233370C0
:10643000002CE8D1F8E700BFB0F60200BC22002033
:10644000704707F0D5BFF0B595B01D461646084613
:106450000C4602F0ABFC1A9B0D93CDE908650025B4
:106460002B46082205A920460A958DF82C500C953C
:1064700002F0B8FC079B0293069B03939DF814302F
:106480008DF8115003F00302012A1DD1BDF814202C
:10649000059DC3F3C203C2F383168DF81030B2001A
:1064A00008230EA9204602F09DFCC5F3952508ABF4
:1064B0000093324602AB0EA9284600F04BFB204663
:1064C00002F078FC15B0F0BD022AF8D1BDF81650E4
:1064D000C3F3C203C5F389158DF810300827082DC2
:1064E0002E4628BF08263B4632460EA9204602F01B
:1064F00079FCAD1B08AB02AA31460EA8374400F068
:106500008DFB002DEBD1DAE708B5FFF79AFF0448C1
:10651000042100F089FA034B01225A7108BD00BF23
:1065200084F6020084220020037813F0040216D0BF
:1065300003F00303012B03D0022B09D00120704785
:106540000A6800880232C0F3831002440A60F5E74B
:106550000B684288023303EB92130B60EEE71046A0
:10656000704700002DE9F04FDFF81CA187B00F46FF
:1065700000230446861C0DF1070015468DF80730F0
:1065800000F064FFDAF804203A60DAF8083003F526
:1065900080739B1A0AF21C470AF583690AF21448B1
:1065A000B3421AD30020002D69D004F00F039B01E1
:1065B00043F0050363F30F00DAF80430DAB2033274
:1065C00033444AF822009DF80700CAF8043000F06E
:1065D00061FF012007B0BDE8F08F0121384601F0CE
:1065E00023FF484601F038FF404601F035FFDAF856
:1065F00008000290C0B203300AEB800002A9FFF746
:1066000093FF029B30BBDAB20AEB8202D16803919E
:106610009A1C0133DBB20AEB83030292D3F80CB06D
:1066200001F00303012B22D0022B15D083464046F4
:1066300001F015FF10B1029BCAF8083059463846E0
:1066400001F0F2FEDAF80830DAF8042003F580737E
:106650009B1AA5E7D8B2CEE7BDF80E30C3F3891375
:1066600003334FEA1B4B02EB93030293DFE7BDF8C2
:106670000C30C3F383134FEA1B4B1344F5E7A40517
:1066800044F0060098E700BFD0230020064B0748DF
:1066900010B500221A7002F042FB044610B90448FB
:1066A00002F0EAFB204610BDD023002098F502003E
:1066B000ECF6020030B50A4C71B10A4A0A49121BC5
:1066C000D20800239A4201D1002030BD31F8235076
:1066D000854202D00133F5E7034654F83300F4E76E
:1066E000ACF5020084F6020084220020094B013937
:1066F00003EBC000032909D8DFE801F00A02040611
:106700000420704700797047407970470020704737
:1067100002207047ACF50200034BD3E90130C31AE5
:1067200058425841704700BFD02300202DE9F04166
:1067300086B0FFF7F1FF0546002840F0ED80774C6A
:10674000C4F81804BFF34F8FA3680293DBB203337E
:1067500004EB830002A9FFF7E7FE029B18B1D4F80F
:106760001824002A5AD0DAB2991C013304EB8202B1
:10677000DBB204EB8303D268DB68049302F003030B
:10678000022B0392029154D1BDF80E306448C3F33A
:106790008917502F3E4628BF502606F1080166F3A0
:1067A0008F13C1F30901ADF80E3002F0D0FA05469F
:1067B000002800F09C8002F0F9FA0023082203A9C7
:1067C000284602F005FB0299CB43DBB20133C9B284
:1067D0000331B6EB830F4FEA830204EB810125D925
:1067E0005FFA82F80823A6EB0806284602F0F0FAC2
:1067F000F6B208F108034B4903F0FC033246284681
:1068000002F0E6FA029B033703EB97070297D4F8EE
:106810001834002B43D1D4F8106453E062689A42D4
:1068200094D8A260284606B0BDE8F081082332461D
:10683000E5E7012B5BD1BDF80C303948C3F3831178
:10684000062928BF062161F38913023101F00F01E7
:106850008900ADF80C3002F07AFA0546002846D0DF
:1068600002F0A4FA0023082203A9284602F0B0FA95
:106870000026BDF80C20C2F38312B300964203F148
:106880000803C4D202994A1CC9B20331029204EB34
:1068900081010422284602F09BFA0136E9E72846E6
:1068A00002F088FAFFF738FF80F00100C5B2B9E7BF
:1068B000F3685B7923B1336829461B6830469847F3
:1068C000F3681E68002EF3D1284602F073FA0DF12A
:1068D00007008DF8076000F0B9FDD4F818340BB943
:1068E000029BA3609DF8070000F0D4FDDAE7D4F81E
:1068F000104454B90C4B0D480D49C01AC00800048F
:1069000040F0020000F05CF8CCE7236820469B686A
:106910009847E3681C68ECE7002583E7D023002054
:1069200098F50200DC230020ACF50200DCF5020043
:10693000D4F602002DE9F34704460E46924601A91B
:10694000012218469946FFF70DFE1B4F10B3019D1B
:106950004FF00008AA1CC84508EB020123D11748D4
:10696000002101F01AFD80F31000000440EA1440F9
:10697000E4006B1C04F03804DBB2EDB244F0010417
:1069800007EB8303033544EA881444EA8624D8607D
:1069900047F825403B781BB1FFF7C8FE0028FBD124
:1069A00002B0BDE8F087C9B207EB81015AF8283080
:1069B000CB6008F10108CEE7D0230020EC270020AF
:1069C00000231A46FFF7B6BF07B50123019201AABB
:1069D000FFF7B0FF03B05DF804FB07B5CDE9002376
:1069E00002236A46FFF7A6FF03B05DF804FB1FB55C
:1069F000CDE90123069B039301AA0323FFF79AFF26
:106A000005B05DF804FB7FB5CDE90123089B039336
:106A1000099B04930A9B059301AA0523FFF78AFFAC
:106A200007B05DF804FB000030B50F4CD4F810241B
:106A300003460020114631B9D96808714AB9C4F833
:106A400010340A6030BDC9680D79854206D00968E6
:106A5000F1E7D26814680C601360F3E701300A288C
:106A6000E8D14FF0FF30EDE7D023002038B5084BD8
:106A70000125D3F810441D7004B938BDE3685D7179
:106A8000236820465B689847E3681C68F4E700BF0A
:106A9000D023002030B5C38885B004460D4633B1FD
:106AA000144A00921449154A284601F03BFD217A08
:106AB00005291DD0637A4BB1A088FFF717FE104B54
:106AC000104953F82020284601F02CFD227A0E4B65
:106AD000A08853F8222003920021FFF7EBFD039AD0
:106AE0000A490346284605B0BDE8304001F01ABD0A
:106AF00005B030BD18F7020000F70200F8F60200FA
:106B00008CF702001DF70200B0F7020020F7020028
:106B100007B503460846197A052911D05B7A2BB1CF
:106B2000094A0A49019001F0FDFC019808490190C9
:106B300001F0F8FC019803B05DF804EB01F0E7BC4C
:106B4000002AF8D0F2E700BF18F702001DF7020094
:106B50006A1603002DE9F04385B01F460C9D002303
:106B600095F80C902B7306460C46904629463846FD
:106B7000FFF790FFB8F1060F09D8DFE808F004121C
:106B8000181F283340003146284601F0CBFC002274
:106B900029463846FFF7BCFF85F80C9005B0BDE8E4
:106BA000F08322683146284601F0BCFCEFE7D4E9C7
:106BB00000233146284601F0B5FCE8E7A3680093BE
:106BC0003146D4E90023284601F0ACFCDFE7E36856
:106BD0000193A36800933146D4E90023284601F0CD
:106BE000A1FCD4E723690293E3680193A3680093AF
:106BF0003146D4E90023284601F094FCC7E76369D5
:106C0000039323690293E3680193A36800933146D9
:106C1000D4E90023284601F085FCB8E708292DE9CE
:106C2000F74F80460E4617461C463DD800251B7B75
:106C30002573214610460193FFF72CFFDFF88CA047
:106C4000DFF88CB0AE4232D918F8052059462046FC
:106C500001F068FC0135082DF4D11B49DFF874A060
:106C6000DFF874B0204601F05DFC4FF000094E459E
:106C700024D918F809507E2D1ED8284608F044FB68
:106C8000002814BF2A462E225946204601F04AFC0D
:106C900009F10109B9F1080FE9D10122214638466D
:106CA000FFF736FF019B237303B0BDE8F08F514619
:106CB000204601F037FCCDE72E22E5E7514620467D
:106CC00001F030FCE4E700BF34F7020030F70200C7
:106CD0002AF7020032F7020036F70200C30710B5A8
:106CE00007D4F023054A4008145C2340194311548B
:106CF00010BD0901C9B20F23F4E700BFB828002076
:106D000030B5094B1C78094B196800239C4202DC02
:106D10000022104630BD11F83350854201EBC3020A
:106D2000F7D00133F2E700BF88280020C8280020F0
:106D300013B504460191FFF7E3FF38B143682BB167
:106D40000199204602B0BDE81040184702B010BDBE
:106D5000034B044819680022490800F08ABA00BFB2
:106D60008C2800209028002010B5C0B2FFF7C8FF83
:106D70000446007802F064FC63785A1E5342534183
:106D8000834208D1044BD3E90023134303D1BDE868
:106D90001040FFF7DDBF10BDB028002037B5430815
:106DA000374AD35CC2074CBF1B0903F00F030446EC
:106DB0000D46042B25D8DFE803F003262F3C4000C6
:106DC000F9B10121FFF78AFF00230DF107008DF8CB
:106DD000073000F03BFB0120A4F12003C4F12001A7
:106DE000284A20FA01F100FA03F30B43A040D2E94C
:106DF000004120430B43C2E900039DF8070000F067
:106E000049FB03B030BD002918BF0221204603B062
:106E1000BDE83040FFF762BF49B10321FFF75EFFD5
:106E20000121204603B0BDE83040FFF781BF0121BA
:106E3000ECE70029E5D10421E8E709B10321E5E702
:106E4000FFF74CFF29462046FFF772FF0DF10700C0
:106E50008DF8075000F0FAFA0120A4F12003C4F1E4
:106E60002001084A20FA01F100FA03F30B43A04085
:106E7000D2E9004124EA000021EA0303BBE700BF96
:106E8000B8280020B02800202DE9F041124E134F01
:106E900000243378A34208DC114BD3E900231343C9
:106EA00018D0BDE8F041FFF753BF3D6805EBC408BB
:106EB00015F8340002F0C4FB98F801305A1E534212
:106EC0005341181A4142414115F83400FFF766FF5B
:106ED0000134DEE7BDE8F08188280020C8280020C2
:106EE000B0280020092AF7B505460C4616463ED9BB
:106EF00002F0DEFAE8B11F4B1F481D601F4B204F08
:106F00001C70204B002110221E6008F07FFA1E4BDF
:106F100000200021C3E90001013CE4B20326FF2C5C
:106F20000DD11A4A1A48002103B0BDE8F04000F024
:106F300095B902F085FA0028DDD003B0F0BD9DF8C8
:106F4000063015F834008DF8046005EBC40223F018
:106F500007038DF8063001A993788DF805303A467D
:106F600002F0B0FA013CE4B20028D8D0E5E70720EF
:106F7000E3E700BFC8280020B828002088280020A8
:106F8000696D02008C280020B0280020896E020064
:106F9000D0F7020070B5084D084E00242B789C42B3
:106FA00001D3002070BD3368012113F8340002F0D2
:106FB00001FB0134F2E700BF88280020C828002028
:106FC00082B001238DF807309DF80730114B18600F
:106FD000596044F2010188429A6012D044F20201E1
:106FE000884206D1DA60DA6812689A61DA68526813
:106FF000DA6172B69DF80730002BFBD162B602B0A1
:1070000070471A611A6992685A611A6912689A611E
:107010001A69ECE7CC28002000B583B002900091FB
:10702000019244F2010071466A4600F003F803B091
:1070300000BD0000F0B5064687B00F46154672B693
:10704000FFF714FDFFF772FB0028FBD1244B254C02
:10705000E41AE40844F2010324049E4244F00104CB
:107060002BD00BD8012E14D041F201039E4222D026
:107070001D493A462046FFF7A7FC0EE044F2020302
:107080009E42F5D1D5E9003218492046FFF7A5FC0C
:1070900003E017492046FFF793FC164BD3F8F03076
:1070A000DB0700D500BE2A463946304607B0BDE8AA
:1070B000F040FFF785BF1049ECE7AA68059210463B
:1070C00001F03EFF2968029701916968009103462B
:1070D0000A49059A2046FFF796FC0949DAE700BFFE
:1070E000ACF50200DCF5020067F8020013F80200BC
:1070F000D4F7020000ED00E0F1F702002DF80200E5
:1071000053F8020010B5D0E90243D1E90202A042CF
:1071100072EB03032CBF0120002010BD08B50A4804
:1071200000F0EBFA094AD2E90031C018084BD3E964
:10713000002341F10001904271EB030303D210F1EF
:10714000807041F1000108BD8C220020F028002051
:107150006829002037B505460C460A4801A901F008
:1071600050F860B10570446001A9064801F073F859
:1071700018B1054800F0C6FA002003B030BD042065
:10718000FBE700BF542900208C22002038B5184BA3
:107190001B78044613B90025284638BD0028FAD0CC
:1071A000037F03F0FF05002BF5D0FFF7B7FFD4E90D
:1071B0000223904271EB030314D3236903B92377AD
:1071C000D4E90530984721690029E4D0237F03F0F2
:1071D000FF05002BDFD0D4E902325B1842F1000238
:1071E000C4E902320348214601F065FED4E700BF3E
:1071F000F828002090F8020013B5114B11491868C7
:10720000019008231048582200F0E8FF044698B97E
:107210000E4A0F4801A900F061F9044660B90C4814
:10722000012100F04DFA01230A4A0948194600F0ED
:10723000AFF9094B01221A70204602B010BD00BF01
:107240008AF80200FC28002054290020BD720200A8
:107250008C220020FFFF7F00F82800203AB103684D
:107260005A614A1E5142514119610020704707205E
:10727000704738B5037F04460D4683B98261FFF736
:107280004DFF2369281841F10001C4E9020103B14F
:10729000256121460020BDE83840FFF75BBF002094
:1072A00038BD0023014603770120FFF753BF0000DC
:1072B000014800F022BA00BF8C2200202DE9F347DC
:1072C000064600F005FA40B1584AD2E9003113F100
:1072D000807341F10001C2E900310021304600F025
:1072E00006FA38B1524C236823B12068FFF74EFFED
:1072F000002323600121304600F0F9F920B1FFF7A7
:107300000DFF4C4BC3E900014B48494D4B4C4C4FD2
:1073100001A900F0B0FF002842D1DFF82081444CE1
:10732000DFF82491404601F0DCFD2368002872D08C
:107330007BB12368D0E90252D3E902138D4272EB8C
:1073400003032AD223681B7F1BB12168404601F04A
:10735000B2FD404601F0BFFDD0E9027A0546FFF7D5
:10736000DDFE381A6AEB010A01287AF1000345DBD9
:10737000B0F5350F40D3FFF79BFF324A02444FF47C
:1073800096030021484600F023F900283ED12368E7
:1073900013B9304600F0F4F8256002B0BDE8F0877C
:1073A0000378012B1DD0022B09D14FF00008204695
:1073B00001F091FD002836D080F81C80F7E73BB93A
:1073C00041680B7F23B901230B77204601F073FD41
:1073D00001A9194800F07AFF01A9174800F04BFFF6
:1073E00099E741682B68994202D100232B60EFE7AF
:1073F000204601F079FDEBE7AA68C0E70021484686
:1074000000F06BF92846FFF7C1FE01E00D28F9D026
:107410000023236086E7002BBFD1304602B0BDE8D1
:10742000F04700F0B1B801233B70D1E7F02800200D
:1074300070290020682900205429002090F80200BB
:10744000F8280020FFFFB4008C22002070B5EFF375
:10745000108672B60C4A946801239CB993600B4B5A
:107460000B4DD3F8801029401160C3F88050D3F839
:10747000841051604FF0FF32C3F88420047006B9C5
:1074800062B670BD0370FAE77429002000E100E0E5
:10749000FC06FFBD084B9A6810B55AB150B9EFF31E
:1074A000108172B6054A1C6814605C68546098606C
:1074B00001B962B610BD00BF7429002000E100E0F0
:1074C000435882B03BB10023435043580193019B82
:1074D000012002B070471846FBE70000F8B5204BCA
:1074E0004479204E43F824201F4A204B06EBC40465
:1074F0009B1A2279DB081B0432B143F002001C49BD
:10750000FFF75EFA0820F8BD02680C88C2F808454B
:1075100090F904508A7804795201002DD2B219DB17
:1075200014494F1987F8002301226D0904F01F0444
:1075300002FA04F441F82540427906EBC201012425
:1075400046F832000C7143F003000B49FFF738FA9C
:107550000020D8E7094904F00F040A55ECE700BF02
:107560008829002080290020ACF50200ECF50200FB
:107570009CF8020000E100E0BEF8020014ED00E01B
:10758000036801221A607047036801225A6070473D
:1075900073B501F15005AD000068ADB24FF4803411
:1075A0008C400026C0F80843C0F84843465101F516
:1075B000A8714559019522F07F42019D40F8212094
:1075C000C0F844430BB1C0F8044302B070BD0000E2
:1075D0002DE9F74F0D4622F07F4402684FF48037C3
:1075E00005F150068F408046B60002EB8500C2F8D8
:1075F0004873B6B2C2F80873D2F8041599464FF032
:10760000000BD0F84035C0F8401542F806B05B1AC0
:107610009259009223F07F43012B009A4FEA850A8A
:107620000CD1264B4FF4806043F001039847D8F803
:10763000003043F806B09B590193019BD8F8001025
:10764000D1F80465C1F84473A31B23F07F43012BD9
:107650001CD11A4B05F5A875013443F0010341F81C
:1076600025404FF480609847D8F80030D3F80435AF
:107670009E4209D1D8F800300020C3F84473C3F803
:10768000047303B0BDE8F08F0D20FAE78A44C9F116
:10769000FF13CAF84045D1F80405221A013A22F036
:1076A0007F4203F57F439342EED3002AE2D10134B7
:1076B000CAF84045D1F804359842DAE7D0F802001C
:1076C00003680222C3F8442309B1C3F804237047B6
:1076D00000684FF48271FFF7F3BE4FF4803303FA72
:1076E00001F10368C3F84813C3F808137047503119
:1076F0008900006889B2FFF7E3BE0368D3F8040588
:107700007047000090F90430002B09DB5A09012171
:1077100003F01F0301FA03F34032024941F822301B
:10772000704700BF00E100E0024B034A1B6810688D
:10773000184700BF882900208029002070B5064D19
:107740000646002455F8043B0BB1304698470134F7
:10775000042CF7D170BD00BF982900204388033363
:1077600000EB830399420BD382884FF6FF739A4252
:1077700008D0038833B18068431C58425841704791
:107780000220704701207047033080B240F2FE3380
:10779000984230B51FD8134B1A783AB91C895D89C5
:1077A0002C440444A4B2B4F5806F0AD91A7DAAB956
:1077B0009A8BDC8B2244024492B2B2F5806F0DD8D2
:1077C00001220A801446142202FB04335A89104411
:1077D0005881002030BD48F20860FBE748F206609F
:1077E000F8E700BFCC2900200B4A0C49538814202D
:1077F00000FB0311CB6833B90420496810700122E3
:10780000074801F0F3B807490523137002238B8062
:10781000012209680023F3E7B0290020CC290020C9
:1078200070220020082A002007B500230549009394
:10783000054A09680548082301F03EF803B05DF8E1
:1078400004FB00BF082A0020E4F802007022002098
:1078500007B5002301460093034A0448082301F0BA
:107860002BF803B05DF804FBDCF802007022002066
:1078700013B500230C4600930146084A0848042328
:1078800001F01AF838B9074B142101FB0431012328
:107890000B7402B010BD48F20D60FAE7D8F8020090
:1078A00070220020CC29002037B50A480A4B4268D4
:1078B0009C88196853880325033305709BB2002008
:1078C00000909B0001EB8401044800F0F5FF03B039
:1078D00030BD00BFB0290020082A002070220020FF
:1078E00010B50146044800F08CFC1C22044600211F
:1078F00007F08CFD204610BDF429002038B5144B4C
:1079000014220D4602FB00302B68446804F58051B8
:10791000A3B15C88033403EB84048C4215D2236842
:10792000013312D02046FFF719FF012808D00228A2
:107930000BD00028F1D12C60012038BD0834ECE7D1
:107940006388033304EB8304E7E70020F5E700BF17
:10795000CC290020426873B504460D466AB3234B18
:10796000D9688A4229D31B699A4226D812F00303A8
:1079700023D11F490089098988421ED12068916856
:1079800088421AD11B4841688A4203D901F58051C7
:107990008A420DD381698A420CD901F580518A420D
:1079A00008D201222A80B3FA83F0400902B070BDE8
:1079B0001A46F7E748F20963F5E700262E8001969C
:1079C000288801A9FFF79AFF30B92B8801339BB2B1
:1079D000012B2B80F3D9E9E7019B2268996891423A
:1079E000EED16360024B1B892381DFE77022002008
:1079F000B0290020CC2900202DE9F8431C461D4B5E
:107A00001B7806460F46154673B382B37CB3DFF886
:107A10006C804FF01409A388012B02D948F2096049
:107A200020E009FB03F318F803302BB9A0882146A6
:107A3000FFF764FF20B92060A3880133A380EAE741
:107A400023681EB1998832889142EFD11FB11988FD
:107A50003A889142EAD19A68C5E90023064B1B890E
:107A60002B810020BDE8F88348F20160FAE748F274
:107A70000460F7E7A8290020B0290020CC290020C5
:107A800008B5074B5888191DFFF738FF18B1BDE836
:107A90000840FFF709BFBDE80840FFF7A5BE00BFDB
:107AA000B02900202DE9F047A24FDFF8AC8288B062
:107AB00006463B6823B9A048414600F0DCFB38602D
:107AC0003D6829784B1E052B07D8DFE813F020000E
:107AD0007A007A000C010C01630148F20E64142252
:107AE000002103A807F092FC41F61D539C4208BFF9
:107AF00000243B6804941A78023A042A00F20282B5
:107B0000DFE812F0E301EF011102190220022EB1A9
:107B10008A4B00225A604FF40644E0E72B79032B8E
:107B20001CD8DFE803F014022A35854A1378022BAB
:107B30001AD0137D022B4FF0010317D114214B43B0
:107B4000D1180020D0544868FFF782FE03E00123DB
:107B50002B71FFF769FE002800F0BF80774B0022F1
:107B60005A6048F20D64BAE70023E7E7734A1370DE
:107B70000023536041F61D54B1E772497248002357
:107B800002222B718A800968012200F02FFFE2E7B0
:107B90006C4C00262E712068FFF75AFE6B4BDFF805
:107BA000A0C15B882568142253430CEB03020CF838
:107BB000036051685560A588158102222160A2806A
:107BC000C9E7B5F814A0AA7DDFF87491AEB1022A16
:107BD000EB8806D9142101FB0A91DA1C08890244BA
:107BE0000A81142202FB0A99C3F57F43B9F80A20DF
:107BF000FD331344A9F80A308DE7142303FB0A93DD
:107C000018895C6804EB8004062A69D8DFE802F072
:107C1000274E36441D5A040041F61D54AA7DEB88B8
:107C2000022A06D9142101FB0A91DA1C08890244B0
:107C30000A81142202FB0A99C3F57F43B9F80A208E
:107C4000FD331344A9F80A3049E74148414900236C
:107C50004360AB690360FFF77DFE00285BD0022321
:107C6000AB75002300930423EA182146364800F040
:107C700023FE002831D048F20D64CFE72B69002B9A
:107C800014BF03230123AB750023009305F10C02FD
:107C9000042304F10801E9E70123AB750022EB8816
:107CA00000922A699B0004F10C01DFE703290CBF55
:107CB00005230623AB7500230093042305F1080276
:107CC000E118D3E70623AB75224B1988204B58687F
:107CD000FFF7CEFD04460028A0D108B0BDE8F0872C
:107CE00048F20E649AE7002E7FF415AF2B79012B32
:107CF00034D0022B3FF43EAF002B7FF4EEAE0223D4
:107D00002B710DF10A01EB68039303A8CDE904661A
:107D1000FFF720FE10B948F20964E0E60498BDF8C8
:107D20000A108388EB8003882B81FFF7A1FD0446AE
:107D300029E000BFC8290020F4290020A82900203C
:107D4000CC290020082A002070220020B029002021
:107D50008C290020102A0020C0290020DFF8009282
:107D600003AA4B463146A81DFFF746FE044670B9EC
:107D7000B9F804100498FFF77BFD044648F2096344
:107D80009C423FF4F7AE002C7FF4A9AEA5E7C9E909
:107D90000066F3E7002E7FF4BEAE6C4B1A7BBAB1DF
:107DA0001E731A78013A062A3FF697AE01A151F8E0
:107DB00022F000BF5F7E0200857E0200A37E0200EB
:107DC000A97E0200DB7A0200AF7E0200C17E0200C3
:107DD0001A78072AE5D801A151F822F0FD7D0200AA
:107DE000A37D0200A37D0200237E0200377E0200F5
:107DF0005B7E02005B7E02001F7E02001A895449EE
:107E000001321A8100225A801A730A78B2FA82F279
:107E100052099A720A7DB2FA82F25209DA7201228A
:107E200007E04C4958688A884088033202448A80B7
:107E300002221A70B5E75C88454A4649142505FBBD
:107E400004220868546850608888108102200C6001
:107E50008880002111740622EBE70722E9E79A7A6D
:107E600032B9DA7A8AB900221A705A805A6081E6E9
:107E7000374900229A72CA68002AF2D1097C002987
:107E8000EFD05A80FFF7FCFD51E70022DA72304A4A
:107E9000116A0029E7D192F82420002AE3D00122B8
:107EA000EFE7FFF701FD42E7FFF79EFC3FE75A8847
:107EB000274B142101FB02335868FFF7C9FC36E752
:107EC00000225A60FFF7B0FC31E701228DF80C2048
:107ED0001A89ADF818209A88DB68ADF81A20059346
:107EE00010E002228DF80C201A89ADF818209A882B
:107EF000ADF81A20DA689B7D05929A1F53425341D0
:107F00008DF81C3003A8FFF719FC002641461248E3
:107F10003E6000F0DBF91148012100F091FA0028E1
:107F20007FF4C7ADD9E603228DF80C20DA88ADF8CE
:107F300018201A89D0E704228DF80C20DB88ADF8D0
:107F40001830DFE705238DF80C30DBE7B02900207F
:107F5000CC290020082A0020F4290020042A00202F
:107F6000142A00204068FFF79DBD000008B50548B1
:107F7000012100F04DFA18B9BDE80840FFF792BDA5
:107F800008BD00BF042A00202DE9F3419846374B75
:107F90001B7806460D46002B5CD000295DD0098871
:107FA0004FF6FF7399425BD06B88002B58D06B68FB
:107FB0009B0758D14AB92F890DF102013846FFF7C6
:107FC000E3FB30B102B0BDE8F08113885788ADF80B
:107FD000023001A8FFF784FC044660B9BDF8022016
:107FE000234B142101FB023358890338C01B5881ED
:107FF00048F20760E6E780F8008000238375BDF84B
:10800000023083826B68036101211A4800F00CFA88
:108010002B882381B8F1030F6B88A38004BF04234E
:10802000A3754FF0000508BF3368E06008BFA36187
:108030001148E780658101A900F00DF936B1E368C8
:1080400033600E4B75601B89B5723381FFF78EFF6D
:108050000020B7E748F20160B4E748F20460B1E7F6
:1080600048F20360AEE748F20260ABE7A8290020BF
:10807000CC290020C4290020F4290020B0290020A8
:1080800073B50D460446C8B1C1B10DF10601FFF745
:1080900061FCB0B1BDF806300B486668142202FBE3
:1080A000030001210C3000F0BFF963682E600C332F
:1080B0006B600123A372002002B070BD48F204601F
:1080C000FAE748F20960F7E7CC29002013B5044627
:1080D000A8B10DF10601FFF73DFC98B1BDF80620EF
:1080E0000B4B142101FB0233DA6872B1A27A62B140
:1080F000DA680020013ADA60A07202B010BD48F2DE
:108100000460FAE748F20960F7E748F20560F4E72F
:10811000CC29002002230022FFF736BF18B1032329
:108120000022FFF731BF48F204607047114B1B7803
:1081300013B50446ABB14FF6FF73984214D001A8B3
:10814000FFF7CEFB98B10523037001230371C480B0
:1081500001A9094800F07FF8FFF708FF002002B0EE
:1081600010BD48F20160FAE748F20360F7E748F211
:108170000760F4E7A8290020F429002007B5ADF82E
:108180000600ADF804100DF1060001A9FFF734FC5C
:1081900003B05DF804FB07B51346ADF806000A46C8
:1081A00000200DF10601FFF727FC03B05DF804FB8A
:1081B00007B51346ADF806000A460DF1060000218A
:1081C000FFF71AFC03B05DF804FB20B119B1036896
:1081D0000B600020704748F20460704710B561B131
:1081E000B2FBF3F403FB1424A4B244B9C0E90014B5
:1081F00084608281C381204610BD0E20FCE70920E7
:10820000FAE737B550E8013F9DB2C4892544848917
:10821000A54228BF2D1B0489A54202BFBFF32F8FA3
:10822000002207E0C5EA030540E80154002CE9D12B
:108230004FF001028DF803200193019A0A609DF826
:10824000031001F0FF0321B1006810FA82F003B0BF
:1082500030BD1846FBE70A884B889A4209D150E89E
:10826000012FC2EA024240E80123002BF7D101208E
:1082700070470020704737B550E8023F1FFAA3F55A
:10828000C488A54202BFBFF32F8F00220DE0C4892E
:1082900025448489A54228BF2D1BC3EA054540E833
:1082A0000254002CE8D14FF001028DF80320019315
:1082B000019A0A609DF8031001F0FF0321B10068E4
:1082C00000EB124003B030BD1846FBE70A884B882C
:1082D0009A4209D150E8022FC2EA224240E8022322
:1082E000002BF7D1012070470020704701F01F02DA
:1082F0004B090121914000EB830000F065B84B0968
:1083000010B501F01F040121A14000EB830000F033
:108310004FF8E04000F0010010BD01F01F03012202
:108320009A404B0900EB8300D14300F065B84B093C
:1083300001F01F0150F82300C84000F00100704711
:108340002DE9F0474F1E7F0980460E460137002574
:1083500058F8254008EB8509E44394FAA4F4B4FAEC
:1083600084F44FEA451A202C06D10135AF42EFD8EC
:1083700034462046BDE8F0875444A642F5D921464C
:108380004046FFF7BCFF0028F3D0D9F80040E44393
:1083900094FAA4F4B4FA84F4E5E710B5034653E87C
:1083A000000F0A4643E8002494F0000FF7D110BDF7
:1083B00010B5034653E8000F40EA010243E80024E9
:1083C00094F0000FF6D110BD10B5034653E8002F0E
:1083D00042EA010043E8000494F0000FF6D110BD1A
:1083E00010B5034653E8000F00EA010243E80024F9
:1083F00094F0000FF6D110BD10B5034653E8002FDE
:1084000002EA010043E8000494F0000FF6D110BD29
:1084100010B5034653E8000F00EB010243E80024C7
:1084200094F0000FF6D110BD10B5034653E8002FAD
:1084300002EB010043E8000494F0000FF6D110BDF8
:1084400010B5034653E8002FA2EB010043E80004F7
:1084500094F0000FF6D110BD0121FFF7B5BF002148
:10846000FFF7BEBF10B590B1D0E9012301689B1A98
:10847000DBB20A60013BDBB2FF2B026802D10020B5
:10848000107110BD11684C1C14600B70F2E70E20C7
:10849000F7E737B5054600240DF107008DF80740D2
:1084A000FEF7D4FF2A686B68116899420ED9481EFE
:1084B000106011F8013CEC68298A01FB0344AB68A9
:1084C00011791B1ADBB2994238BF13719DF807006E
:1084D000FEF7E0FF204603B030BD37B50546002368
:1084E0000DF107000C468DF80730FEF7AFFF2A6844
:1084F0001368591C1160E968641A298AB4FBF1F405
:108500001C709DF80700FEF7C5FF03B030BD826800
:1085100010B504462AB143690168006998470023F1
:10852000A36010BD0EB403B5039921B104AB01AA39
:10853000019300F077F802B05DF804EB03B07047E8
:108540000A2938B504460D4602D10D21FFF7F8FF80
:10855000A3682268591CA160D554D4E901329A421B
:1085600004D32046BDE83840FFF7D1BF38BD000036
:108570002DE9F84F9846DDE90A43154682460F4635
:108580000A464FF00109AA420FD2C14538BFC14681
:1085900013F0010B01D16CB900240126B8F1010FD1
:1085A0001BD908F1FF386E43F8E709F10109B2FB66
:1085B000F5F2E8E79B070ED5B8F1000F0CBF3026A7
:1085C0002026A145E9D2013C31465046FFF7B8FFCD
:1085D000002CF6D1E0E72026F3E7B7FBF6F39D4247
:1085E000E1D9DFF83C80B7FBF6F3504618F80310EA
:1085F00006FB1377FFF7A4FF3346AB42B6FBF5F655
:10860000F1D2BBF1000F02D00CB1A14501D3BDE8FE
:10861000F88F20215046013CFFF792FFF4E700BF9E
:10862000ECF802002DE9F74F054617468846002969
:1086300000F03E8118F8011B49B92B7B002B00F09C
:108640003781284603B0BDE8F04FFFF760BF25290A
:1086500040F0B780002698F800302D2B424608F1F4
:10866000010823D0302B24D02B2B25D000242A2BFB
:1086700002F1010123D13B681A1D1B683A601C44BA
:108680000A4613782E2B26D101324FF0000A1046ED
:1086900010F8011BA1F1300CBCF1090F1DD80A2301
:1086A00003FB0A13A3F1300A0246F0E746F0010685
:1086B000D1E746F00206CEE746F00406CBE711F814
:1086C000013CA3F130000928DBD80A2202FB043464
:1086D000303C0A46CBE74FF0000A12F8011B01F0CC
:1086E000FB0068289046F8D0782909D86F290CD863
:1086F000632962D022D8252963D0582900F08880C8
:1087000098F80030002B95D197E770390829F7D8F1
:1087100001A353F821F000BF8B88020001870200FB
:10872000018702002188020001870200FF87020002
:10873000018702000187020011880200642901D02C
:108740006929DDD13A68D2F80090111D89EAE972F1
:108750003960A2EBE9724FF0010B092A35DCD345F1
:1087600038BFD3462CB1B9F1000F01DB720700D539
:10877000013CB30702D5BAF1000F03D0F00701D4D2
:108780004CBB0024B9F1000F2DDAC9F100092D21ED
:108790002846FFF7D5FE06F00302022A04D1BAF1FB
:1087A000000F01D11CBB0024CDE9004653460A222C
:1087B00049462846FFF7DCFEA2E73B681A1D1978F8
:1087C0003A602846FFF7BCFE9AE70A230BF1010B3B
:1087D000B2FBF3F2C1E7A345D4D220212846013CE5
:1087E000FFF7AEFECCE77107D5D52B21D0E7A34527
:1087F000DAD230212846013CFFF7A2FED2E73968E1
:10880000CDE900460A1D3A6053460A220968D0E7BE
:1088100039680A1D3A60CDE9004653461022F5E753
:108820003B681A1D3A6016F00106D3F8009024D177
:10883000B9F1000F03D0484606F03DFE0646B442AB
:108840001DD809F1FF3919F8011F00293FF458AF6D
:108850002846FFF775FEF6E728460136FFF770FE5B
:1088600019F806100029F7D1A642BFF449AF20211C
:108870002846013CFFF764FEF6E70026F0E72021DA
:108880002846013CFFF75CFED9E73B681A1D3A60B9
:10889000302128461C68FFF753FE78212846FFF751
:1088A0004FFE00220823CDE900322146102280E746
:1088B00003B0BDE8F08F00BF2DE9F743DDF8288055
:1088C00088B93E4B3E483F4AC01AC0080E243E4B72
:1088D000009400043D4940F00100FEF788F820466E
:1088E00003B0BDE8F0834AB9344B3548384AC01A62
:1088F000C0080E24344B00940004EBE7D0F800E0ED
:10890000BEF1000F09D12D4B2D48324AC01AC008C4
:1089100008242D4B00940004DCE74BB9274B284872
:108920002D4AC01AC0080924274B00940004D1E73F
:108930004568D5F80490B3FBF9F509FB15354DB141
:108940001E4B1F48254AC01AC00809241E4B00941C
:108950000004BFE78D0709D0184B1948204AC01AF8
:10896000C0081024184B00940004B3E712F0030F62
:1089700009D0124B12481B4AC01AC0081024124BCF
:1089800000940004A6E7C568A9420DD34D1EEC185B
:108990000569AC4208D8CDF82880DEF80C40A44622
:1089A00003B0BDE8F0436047044B05480E4AC01AC7
:1089B000C0081024044B009400048BE7ACF50200BF
:1089C0000CF60200FCF80200A5FA020001F9020010
:1089D0007EF902002AF902003DF9020084F9020042
:1089E000AEF90200C6F90200E9F90200F7B580B954
:1089F0002A4B2B482B4AC01AC0080E242A4B00943D
:108A000000042A4940F00100FDF7F1FF204603B0C1
:108A1000F0BDD0F800C0BCF1000F09D11F4B2048B9
:108A2000234AC01AC00808241F4B00940004E8E73A
:108A30004AB91A4B1A481F4AC01AC00809241A4BCF
:108A400000940004DDE74568D5F800E00EF1FF353D
:108A50000D4209D0114B1248174AC01AC008102401
:108A6000114B00940004CCE7C568A9420CD34D1EFD
:108A70000EFB02540569AC4206D8DCF81040A4464F
:108A800003B0BDE8F0406047044B05480B4AC01AEC
:108A9000C0081024044B00940004B2E7ACF50200B7
:108AA0000CF60200FCF8020092FA020001F9020042
:108AB0002AF902003DF9020010FA020036FA02001B
:108AC00029DF704728DF704770B503689E6886B05D
:108AD00004460D466EB114220021684606F096FC4D
:108AE000A3680593237901952BB1012B0DD068461E
:108AF000B04706B070BD01238DF8003023690293A2
:108B0000E368039363690493F1E702238DF800306F
:108B1000E3681B030293F5E7034B187A0122B0FACE
:108B200080F05A74400970472C2A002038B5234D34
:108B3000234C2B7A3BB923492348FFF79CFB206049
:108B400008B9686038BD022324682B72237973B199
:108B5000012B24D020460321FFF7B6FF00232B7200
:108B60006B6018491848BDE83840FFF7AFBBD4E93F
:108B70000523D21AB2F5805FD4E9031028BF4FF461
:108B800080529208012A38BF012219441844FFF785
:108B900097FF50B11128DDD101232B72D2E7D4E920
:108BA00003031844FFF78EFFF3E72B7C002BC9D19A
:108BB000BDE83840022000F009B800BF2C2A002090
:108BC000442A0020402A00201C2A002038B5234CCB
:108BD000237A002B41D0022B09D1032830D0204B1F
:108BE00000221B68E2601A793AB1012A22D0637C24
:108BF0007BBBBDE83840FFF799BFD3E905128D1A5A
:108C0000B5F5805F94BF521902F580529A61914286
:108C1000EDD102284FF0000308BF19462372104B14
:108C200018BF0D211868FFF74FFF0E490E48FFF7D8
:108C30004DFBDCE71A6901321A615B699A42E7E78A
:108C4000E3680133082B01D8E360D0E70023E36039
:108C5000DFE7BDE8384005F0A1BC38BD2C2A002074
:108C6000442A0020402A00201C2A0020831E012BB9
:108C700001D8FFF7ABBF704700F0FD03012B08D10F
:108C8000044B00225A74421E504250411874FFF7A0
:108C90004DBF70472C2A00202DE9F84FB0F806A0F0
:108CA0004579D2F800B09DF828900AFB05F5043DFF
:108CB00088460BEB0301A94203F1040488BFA5EB2E
:108CC000030BB4FBFAF607460AFB1644C2F800B0E1
:108CD0004EB9AAEB04055D4528BF5D46BBF1000F08
:108CE00004D1BDE8F88F3F68013EF1E7043408EB9A
:108CF00006003C442A46B9F1000F0DD02146ABEBEB
:108D0000050B06F05AFBDA452E443F6855464FF0F6
:108D1000000428BF5D46E1E701462046EFE7FFF784
:108D2000A1BBF8B546790146721E05460023934261
:108D30002D6803D30024A64202D8F8BD0133F6E71C
:108D40000F682846FFF7C9FB01343946F3E72DE9E0
:108D5000F843068ACD1C0746FFF79BFB043E3544CB
:108D60000446B5FBF6F5F0B14FF48073EDB28380A5
:108D7000C680013D076081464FF00008A84512D229
:108D80003846FFF786FB064648B1637901336371C5
:108D900008F10108C9F8000007608146EEE72046A7
:108DA000FFF7BFFF34462046BDE8F88301210430B9
:108DB000FFF73ABB10B5012104460430FFF740FB32
:108DC000C0B220B92046BDE81040FFF7AABF10BDD1
:108DD0001FB503920022009203AAFFF75DFF05B0C2
:108DE0005DF804FB1FB503920122009203AAFFF76E
:108DF00053FF05B05DF804FB41DF7047064B10B52B
:108E000000241C70054B1C60BFF35F8F04490548AC
:108E100000F03BF8204610BD502A0020542A0020C4
:108E2000C4FA0200482A002007B500230DF107000C
:108E30008DF80730FEF70AFBF1EE103A23F09F039E
:108E4000E1EE103ABFF35F8F0A4B4022C3F8842152
:108E50009DF80700FEF71EFB05F0B0FB20B103B044
:108E60005DF804EBFFF7C8BF20BF40BF20BF03B0D1
:108E70005DF804FB00E100E0836800225A60C3E96A
:108E800004229A60DA601A6070470B684A6843608F
:108E9000934208BF0023016008BF436070474368E6
:108EA00043B10268916852680B449342436004BF27
:108EB00000234360704770B5446806460D4620683D
:108EC00018B1B3682946984718B923682B60256004
:108ED00070BD2468F3E74368186808B102681A6037
:108EE00070474368186870474368186800B970474E
:108EF000884203D102681A60012070470346006867
:108F0000F4E7000010B50D49A1F59472914201D823
:108F100000200FE08C1AE30F03EBE4035B1002EB7D
:108F2000C30452F83330834205D802D204F1080258
:108F3000ECE7606810BD2146E8E700BFD0FF020003
:108F400008B5FFF7DFFF024B002808BF184608BD31
:108F500093FE02004FF08053D3F83001421C04BF4F
:108F60004FF0704393F8E00F831F58425841704709
:108F70004FF0704393F8E02F062A09D1D3F8E83F69
:108F8000C3F30313033B032B02D8024AD05C7047A0
:108F900000207047D8FF020008B5FFF7DBFF40B1A3
:108FA0004FF080538F4AD3F82433C3F30423C2F81D
:108FB0004035FFF7DDFF10B18B4B8C4A5A67FFF746
:108FC000C9FF48B14FF080534FF08042D3F844328C
:108FD000C3F34233C2F83C35FFF7CAFF30B1844ACD
:108FE000D2F8FC3023F08073C2F8FC30FFF7B2FFF8
:108FF00040B14FF080430022C3F80C21C3F8102188
:10900000C3F83825FFF7B4FF20B14FF080430322A7
:10901000C3F8A025FFF7ACFF60B1764B0522C3F87B
:1090200010260122C3F888260022C3F818263F2202
:10903000C3F814264FF08053D3F83021511C09BFD8
:109040004FF07043D3F8343193F8E02FD3F8E83F72
:1090500008BFC3F30313062A4DD1033B032B03D8E8
:10906000654AD35C002B46D04FF08052634BD2F858
:109070000414C3F82015D2F80814C3F82415D2F844
:109080000C14C3F82815D2F81014C3F82C15D2F814
:109090001414C3F83015D2F81814C3F83415D2F8E4
:1090A0001C14C3F84015D2F82014C3F84415D2F8A4
:1090B0002414C3F84815D2F82814C3F84C15D2F874
:1090C0002C14C3F85015D2F83014C3F85415D2F844
:1090D0003414C3F86015D2F83814C3F86415D2F804
:1090E0003C14C3F86815D2F84014C3F86C15D2F8D4
:1090F0004424C3F87025FFF72DFF48B14FF080538B
:109100004FF08042D3F8583203F04F03C2F8E43EE8
:10911000FFF720FF48B14FF08043D3F80024D20777
:1091200044BF6FF00102C3F800244FF08053D3F81E
:109130003021062A0ED1D3F83431033B032B02D859
:109140002F4AD35C33B12F4AD2F83C3743F48063C3
:10915000C2F83C37264AD2F8883043F47003C2F88C
:109160008830BFF34F8FBFF36F8F4FF01023D3F8CA
:109170000022002A03DBD3F80432002B2EDA224B24
:109180000122C3F80425D3F80024002AFBD04FF0B5
:1091900010221521C2F80012D3F80024002AFBD0B7
:1091A0004FF010231522C3F80422174BD3F80024E4
:1091B000002AFBD00022C3F80425D3F80024002A9B
:1091C000FBD0BFF34F8F0A49104BCA6802F4E0622C
:1091D0001343CB60BFF34F8F00BFFDE70C4B0D4A2D
:1091E0001A6008BD0030014000C007400DF0ADBA64
:1091F00000ED00E000500040D0FF020000C0004041
:10920000D4FF02000010004000E001400400FA0515
:10921000942200200090D003054A4FF0A043105C38
:10922000D3F8043523FA00F000F00100704700BFC6
:10923000DCFF0200044B1A5C012393404FF0A04274
:10924000C2F80835704700BFDCFF0200044B1A5C0F
:10925000012393404FF0A042C2F80C35704700BF85
:10926000DCFF020008B50020FFF7F0FF0120FFF748
:10927000EDFF0220FFF7EAFFBDE808400320FFF7FB
:10928000E5BF08B50020FFF7D5FF0120FFF7D2FFAB
:109290000220FFF7CFFFBDE808400320FFF7CABF59
:1092A000074A4FF0A041105CD1F8043501228240FA
:1092B00022EA03001340C1F80805C1F80C357047D5
:1092C000DCFF02000D2809D00E2809D00F2809D094
:1092D00010280CBF03204FF0FF307047002070476C
:1092E0000120704702207047C20708B501460CD51F
:1092F0004FF0A0430322C3F84427C3F84827C3F81C
:109300004C27C3F85027FFF7ADFF8B070AD54FF066
:10931000A0430C22C3F83427C3F83827C3F83C27EE
:10932000C3F8402708BD00F18040002382B00360ED
:1093300003680193019B02B070470000044A13794F
:1093400023B901211060918018467047852070472D
:10935000582A0020074B1A68D20704D4C02283F889
:10936000002301221A604FF080430122C3F8182520
:10937000704700BF00E100E04FF0804208B50223D3
:10938000C2F808334FF48270FFF7CDFF0123D3609A
:10939000D2F81834DB03FBD408BD00004FF0804145
:1093A00010B5D1F8003163B14FF48070FFF7BBFF07
:1093B0000D4B58790122C1F8082310B95A711B6866
:1093C00098474FF08042D2F8043163B14FF4827075
:1093D000FFF7A9FF0223C2F80833034BBDE8104092
:1093E0001B680120184710BD582A002000F180405A
:1093F00000F5C040002382B0036003680193019B25
:1094000002B07047800000F1A040D0F8002722F49D
:109410004032C0F80027D0F8003743EA0141C0F8D5
:1094200000177047054B4FF0FF32072843F8202004
:1094300084BFC01880F84820704700BF602A002011
:1094400010B5184991F8583053BB4FF0FF3222FA4B
:1094500003F0C00748BFC81803F1010348BF80F8F4
:109460003020202BF3D10024E0B20134FFF7DAFFE3
:109470000C2CF9D10C4B0022C0204A6583F806035E
:10948000402018604FF4BE70FFF7B0FF074B4FF05D
:109490000040C3F80403012381F85830104610BD82
:1094A0000820FCE7602A002000E100E000600040A6
:1094B000034B93F85800003818BF0120704700BFD5
:1094C000602A0020F0B5394E331893F93030002B64
:1094D00069DA8D78C5F34005002D0BBF0823002302
:1094E0000C240824A34201D10420F0BD56F82370B7
:1094F000013743D137185CB246F8232087F8304053
:1095000015B9F21882F848008A78550716D4D7079B
:1095100036D5820002F1A042D2F8005725F00205AC
:10952000C2F80057224FC50800F0070C012202FACA
:109530000CF217F805C042EA0C027A558A780D78C9
:1095400012F0020225D09B0003F1804303F5C043D3
:109550000002D3F8102522F4473222F44072C3F8F7
:1095600010252D04D3F8102500F4F85005F44035EB
:1095700028431043C3F810050020B6E70133B1E7D4
:109580004D7800F5E0724FF0A047AD0047F822504B
:10959000C8E7083C46FA84F494F8500040EA851580
:1095A00084F85050E8E708209FE700BF602A0020B9
:1095B000B42A002038B5204C251895F93020072A08
:1095C00018DD083A44FA82F494F850309B09032BD2
:1095D0000BD14FF0A043D3F81015C14001F00101A9
:1095E0000231BDE83840FFF70DBF012B0CBF02214F
:1095F0000321F6E7D3B2072B1DD8930003F1804374
:1096000003F5C043D3F8100540F00100C3F810057E
:1096100002F1400040B2800080B2FFF7E7FE51B196
:1096200095F9303054F823302BB1012303FA02F2BC
:10963000024BC3F8042338BD602A002000600040BC
:109640004FF0A043D3F8103523FA00F000F00100EA
:10965000704700002DE9F74F00244E4D01944FF460
:109660008072012102F1804303F5C04390B21B6870
:10967000012B06D1D5F804330B4202D0FFF7B6FE1A
:109680000C430432B2F5907F4FEA4101EAD1414BDD
:10969000D3F87C31012B0CD14FF4BE70FFF7A6FE3E
:1096A0004FF0A04344F00044D3F820250192C3F8C2
:1096B0002025E3B2D3B1384F00250126344210D023
:1096C000AB0003F1804303F5C043D3F81005D3F892
:1096D000101557F8253023B1C1F30141C0F3042020
:1096E00098470135082D4FEA4606E7D1002C48DAA5
:1096F000294D4FF0A048294E4FF00009012716F9D7
:10970000013B5A1C31D0C3F3C20202A90A44DCB2A5
:1097100012F8042C03F03F0A03F0070307FA03F3DF
:109720001A4222D00AF5E073504658F82330C3F3AA
:10973000014BBBF1020F0CBF03210221FFF762FEB8
:1097400007FA0AF3C8F8203505EB0A0393F930301D
:1097500055F823304BB1A109032904D0BBF1020F06
:1097600012D1012901D15046984709F10109B9F1F7
:10977000040FC4D1D8F820350193C8F82035002B48
:10978000B9D103B0BDE8F08FBBF1030FEDD10229D1
:10979000E8E700BF00600040602A0020B02A0020F7
:1097A000014B1B68184700BFBC2A00200E4B984293
:1097B00037B50C4602D0002003B030BD00230DF1B8
:1097C00007008DF80730FDF741FE084B1D7915B9EC
:1097D00001221C601A719DF80700FDF75BFE002D49
:1097E000E9D01120E8E700BF00200040BC2A00209B
:1097F00038B5074C051E04F1080318BF1C46236842
:109800002BB11A6822605B6828469847F7E738BD95
:10981000CC2A002020B9054B01225A70FFF7E8BF7F
:10982000012802D1014A9070F8E77047C42A00204D
:1098300020B9034B01225A70FFF7DABF704700BF0F
:10984000C42A002038B50E4C2378B3B90D486360A4
:10985000A3602361E360FFF771FD054604F0AEFEEF
:1098600008B9FFF777FD01232370074BD3F80034C5
:109870000BB10123A370284638BD8525F5E700BF4D
:10988000C42A0020159802000000014037B50D4C95
:1098900000230DF107008DF80730FDF7D7FDE368D1
:1098A000013BE360E36833B9074BD3F8005415B9C3
:1098B000FFF762FDA5709DF80700FDF7EBFD03B013
:1098C00030BD00BFC42A002000000140012813B5AC
:1098D0000CD0032820D038B9134B0122C3F88020C4
:1098E000BFF34F8FBFF36F8F02B010BD0F4C00233B
:1098F0000DF107008DF80730FDF7A8FD23780BB9AF
:10990000FFF7A0FFE3689DF807000133E360012340
:10991000A370FDF7BFFDE7E7FFF71CFD02B0BDE850
:109920001040FFF7B3BF00BF00E100E0C42A0020F1
:109930001FB503788DF800308388ADF80430836854
:109940008DF80630C3688DF80730036902934369C8
:10995000054A0393054B684653F8213052F821100D
:10996000984705B05DF804FBD82A0020E02A0020C3
:10997000024B4FF4807043F00103184710000300BE
:109980002DE9F047154690F80090324A42F82950E8
:10999000314A42F829304B7B07460C466BB30868C6
:1099A000496882008B0002F1A04203F1A04340F21B
:1099B0000C66C2F800674FF0010AC3F800674FF069
:1099C000A0460AFA00F00AFA01F1C6F80805C6F83E
:1099D000081540F20D61C2F80017C3F80017FFF731
:1099E000C7FF4FF00008D6F81025636822FA03F38A
:1099F000DB070DD5B8F1000F1DD1002D174A4B46DE
:109A000008BF2A462146381DBDE8F04700F01ABAC3
:109A100023680AFA03F3C6F80C35FFF7A9FF236899
:109A20000AFA03F3C6F8083508F10108FFF7A0FFAA
:109A3000B8F1090FD7D1636801264FF0A04806FAA4
:109A400003F3C8F80C35FFF793FF63689E40C8F82E
:109A50000865D2E7E02A0020D82A002031990200C8
:109A60000023435082B043580193019B02B07047DA
:109A70008B6A4A6B9A4210B54FF0010305D2496ACE
:109A80008A5CC0F81C251A4604E091F82C201AB113
:109A9000C3610022104610BD0C6A640603D5C36181
:109AA00081F82D30F6E74361EDE770B5D0F8046139
:109AB00005460C4626B14FF48271FFF7D1FF01260F
:109AC00094F82F2022B34FF492712846FFF7C8FF75
:109AD0004FF48E71FFF7C4FF4FF48471FFF7C0FF9E
:109AE000002E69D094F82F20002384F82D3092BBEB
:109AF000A36A616B99421CBF1646052386F00106D6
:109B00001CBFC5F80025C5F8003584F82F6023E098
:109B1000D5F824314BB14FF492712846FFF7A0FFDE
:109B200001236B6184F82F30DAE7D5F81C31ABB133
:109B30004FF48E712846FFF793FF636B0133636325
:109B4000D5F8243113B14FF49271E7E72146FFF7BE
:109B50008FFF0028C4D10022104670BDD5F808310F
:109B6000002BBDD04FF484712846FFF779FFD5F85C
:109B70002431002BE7D1636BA16A8B42B0D2616ABA
:109B8000D5F81805C854636BA16A0133481E834297
:109B9000636308D1206A400610D40223C5F800325E
:109BA00001232B629CE78B42FAD1236A5B0697D58F
:109BB000022384F82D30CFE70122CDE78B42EFD18D
:109BC000F6E7000037B5314B01930D464FF4827133
:109BD000FFF746FF4FF49271FFF742FF4FF48E718B
:109BE000FFF73EFF4FF48471FFF73AFF0023C0F800
:109BF00000326B6385F82F300123036295F82D2026
:109C00009A4218BF836029460446FFF731FF2B684C
:109C100083B140F28623AB60AB68C4F80433002004
:109C200003B030BD29462046FFF73FFF28B1019B16
:109C3000013B0193019B002BF4DC95F82F0050B9F8
:109C4000019B002BECDC0023C4F800350523C4F88D
:109C500000350320E4E7D4F8C434C4F8C43493B125
:109C600013F0010F14BF4FF40240032048F2012209
:109C700013F0020F18BF104613F0040F48F202232E
:109C800018BF1846DCE70320DAE700BFA086010012
:109C900037B5344B01930D464FF48271FFF7E0FE68
:109CA0004FF49271FFF7DCFE4FF48E71FFF7D8FE90
:109CB0004FF48471FFF7D4FE00236B6385F82F30D7
:109CC000AB6A012B044617D12B6A5B0614D402231E
:109CD000C4F800320123236295F82D20022A18BF10
:109CE00023602B6893B140F28623AB60AB68C4F865
:109CF0000433002003B030BD0123E9E729462046A4
:109D0000FFF7D3FE28B1019B013B0193019B002B80
:109D1000F4DC95F82F0050B9019B002BEADC0023FE
:109D2000C4F800350523C4F800350320E2E7D4F871
:109D3000C434C4F8C43493B113F0010F14BF4FF40A
:109D40000240032048F2012213F0020F18BF104610
:109D500013F0040F48F2022318BF1846DCE7032073
:109D6000DAE700BFA0860100F0B587B007460C46D1
:109D7000FFF79BFE002846D194F82FC0D4F820E0CE
:109D8000BCF1000F1FD1237B9A1E012A1BD8616AE8
:109D9000A269914217D1E2696262CEF3401E626904
:109DA000A262032B84F82CE084F82DC021463846AB
:109DB00004D107B0BDE8F040FFF704BF07B0BDE82D
:109DC000F040FFF765BF04F10C060FCE01AD0FC5E3
:109DD00033682B60BCF1000F20D0D7F8C434C7F82B
:109DE000C434990711D501238DF8003000231EF0EB
:109DF000040F84F8303002D0BCF1000F03D0D4E956
:109E000000316846984707B0F0BD5A0701D50223D4
:109E1000EAE7DB074CBF03230423E5E78DF800C026
:109E2000E4E7000001490248FFF79EBFE82A00204E
:109E30000030004002494FF04020FFF795BF00BFBF
:109E4000242B00202DE9F84F0779324E4FF03C0AC1
:109E50000AFB07FA06EB0A059B4695F82E3080466A
:109E60000C469146002B51D12B4B006853F827101C
:109E7000FFF79CFC00284BD12168637B85F83830C4
:109E800001F5E0724FF0A043A860C5F804B085F872
:109E9000300085F82D0085F8310040F20C6546F859
:109EA0000A9043F82250626802F5E07C43F82C5097
:109EB000D8F80030C3F80815C3F80C25A268C3F819
:109EC0002425B9F1000F14D0227B43F3073152014E
:109ED0000029C3F30733D2B213DB104C651885F8A1
:109EE00000230122490903F01F0302FA03F344F897
:109EF00021303C2303FB0766012386F82E30BDE8A2
:109F0000F88F074903F00F03CA54F2E70820F6E779
:109F10001120F4E7E82A00201C00030000E100E023
:109F200014ED00E0036802790521C3F80015044B25
:109F30003C2101FB0233022283F82E20704700BF30
:109F4000E82A00202DE9F047314F0479D0F800903D
:109F50003C2303FB04730D4693F82D30012B9446EC
:109F600004D10B78012B06D1082011E0022B02D17D
:109F70000B78012BF8D13C26264BC9F8083306FB99
:109F8000047696F830302BB1B368C9F80433112049
:109F9000BDE8F0878CF00403C3F3800386F830300B
:109FA000C6F820C0A846B8E80F0006F10C0EAEE8CF
:109FB0000F00D8F80030CEF800306B68B362EB6861
:109FC00073626B78C9F888352B78C4EB041A012BBF
:109FD00007EB8A0A17D09BB9CCF3401C3C2303FB48
:109FE0000473514683F82CC04846FFF7EBFD3C2331
:109FF0005C433A193B59002BCAD182F83030C7E78D
:10A000004FF0010CEAE751464846FFF741FEEEE704
:10A01000E82A00208642040010B586B00024CDE96D
:10A0200002349DF820308DF80510A342CDE90424B8
:10A0300001A914BF202222468DF80440FFF782FFB9
:10A0400006B010BD10B586B0012402930023CDE9FF
:10A0500003328DF805101A4601A98DF804400593C6
:10A06000FFF770FF06B010BD0220FFF719B900001E
:10A070002DE9F04780460D46FFF724F903280446F2
:10A0800010D8012D10D0022D30D05DB91A48FDF73F
:10A0900008F91A4B04EB440213449D78184B1B5DDE
:10A0A000AB4219D0BDE8F087144E00EB4003F21824
:10A0B000F55C5378470053B1DFF84C900E484A46A0
:10A0C0004FF48041FDF7D5F808B989F8008027449E
:10A0D0003E440B4BB2781A55002DE3D0094B1B6858
:10A0E000002BDFD02846BDE8F047184700EB4004BE
:10A0F000024804446578EFE7882B0020C82B002035
:10A10000E12B0020DC2B0020602B002000780221B6
:10A11000FFF7AEBF08B5094B1B7853B10020FFF71E
:10A1200095F80120FFF792F8BDE808400320FFF7FB
:10A130008DB8BDE80840FFF795B800BF612B00203F
:10A14000F8B57A4C237805461BB100232370FFF73E
:10A15000E1FF172D00F28780DFE805F00C171742AA
:10A160005364757F878C878C949999999999C3C802
:10A17000D0D8E3E3FFF7CEFF6D48FDF792F86D4BC3
:10A18000002204461A702046F8BD0020FFF744F86C
:10A19000F0B10020FFF75AF8022D0CBF4FF4E16434
:10A1A0004FF47A64634B1D7000254FF400464FF462
:10A1B0007A7029464FF4FA620023E4FB060104F0AA
:10A1C000E3FF2A460146BDE8F8405948FDF751B87B
:10A1D000FFF730F8022D0CBFC8244FF4C874E1E734
:10A1E0000020FFF719F840B10020FFF72FF84FF4D7
:10A1F0004874504B03221A70D6E7FFF71BF8C824A7
:10A20000F7E70020FFF708F838B10020FFF71EF845
:10A210004FF47A64474B0422EDE7FFF70BF84FF455
:10A22000C874F7E70020FEF7F7FF48B10020FFF7FA
:10A230000DF8404B05221A7040F6CD410022C2E7CE
:10A24000FEF7F8FFF5E70020FFF72AF8394B062262
:10A250001A70002240F26661B5E70020FEF7EAFFBF
:10A26000344B07221A7000248DE701202070FFF77D
:10A2700017F8EEE701202070FFF712F800224FF4E4
:10A280000051A0E7FEF7FDFF2A4B0C22EAE72A481F
:10A290002A4EFDF706F8D5F1110504461CD0D8B9B1
:10A2A000012D13D0C820454321464FF400474FF4F9
:10A2B0007A704FF4FA620023C5FB070104F064FFD3
:10A2C000224601461C48FCF7D4FF04460220FEF754
:10A2D000B1FF0123337056E70220FEF7B7FF0023DA
:10A2E000F8E7FFF717FF134B1222BBE7FFF712FF48
:10A2F0000020FEF79FFF0F4B1322B3E7FFF70AFF83
:10A300000120FEF797FF0B4B1422ABE7FFF702FF8C
:10A310000020FEF78FFF0120FEF78CFF054B152272
:10A32000A0E7FEF7AEFF034B1D709CE7D82B002083
:10A33000A82B0020E02B0020682B0020612B0020A0
:10A34000044B1B68DB0703D5034B1878FFF7F8BEF7
:10A35000704700BFD42B0020E02B0020044B1B686B
:10A3600013F0010301D0FFF7EBBE1846704700BFA2
:10A37000D42B002038B51C4B18601C4B10F0020485
:10A38000054619601AD01A4B1A480E221A700F226D
:10A39000DA7010229A7111225A72042140F233327B
:10A3A000FCF7A0FD044648B9FCF7F4FD044628B9C3
:10A3B0000146114A1148FCF751FF0446EB0711D53D
:10A3C0000120FEF791FF6CB921460D4A0D48FCF7BC
:10A3D00045FF044630B9BDE838400B4A0B4801211F
:10A3E000FCF73CBF204638BDD42B0020DC2B0020DE
:10A3F000C82B0020240003000DA102004800030028
:10A4000041A302004C00030069A0020044000300C5
:10A41000032811D8012A0AD101290FD100F10E0217
:10A42000D2B20D4B00EB40001A54002070470129B6
:10A43000F7D0022904D049B1072070470022F8E77D
:10A44000054B00EB400018444270EEE7024B00EB76
:10A45000400018448270E8E7C82B002008B50122AC
:10A4600002210020FFF7D4FF08B1072810D10722EE
:10A4700002210120FFF7CCFF08B1072808D10021F5
:10A480000A220846FFF7C4FF10B1072808BF0020C2
:10A4900008BD00000388102B10B502D0112B1ED070
:10A4A00010BD1A4C2168B1B901220846FFF7B0FF70
:10A4B00008B1072824D1072202210120FFF7A8FFB5
:10A4C00008B107281CD1042202210020FFF7A0FFB9
:10A4D00008B1072814D1236801332360E0E70B4A51
:10A4E0001368013B1360002BDAD1FFF7B7FF002898
:10A4F000D6D0074B1B68002BD2D0BDE810401847C0
:10A50000034B1B68002BE6D09847E4E7EC2B0020B8
:10A51000E82B00206DDF704779DF70477DDF7047E3
:10A5200064DF70472DE9F04F85B000250E9CBDF823
:10A530003CB0B4F800A00191074690461E46A946DB
:10A540003A884A450DDC45B12388013BA3EB0A0359
:10A550009BB2FF2B3AD806F80A30002005B0BDE8C0
:10A56000F08F7A6852F82900039000220DF10B0158
:10A5700003A8FFF7D5FF0028F0D19DF80B20424536
:10A5800021D12288002D14BF0020022002EB0801F7
:10A59000014459451ADC3DB9013292B2019B228037
:10A5A000B35422880132228022880DF10B013244FB
:10A5B00003A8FFF7B5FF0028D0D121889DF80B2014
:10A5C0000A442280012509F10109B9E70C20C5E7F9
:10A5D0002DE9F341089FBDF824801546CDE90078A8
:10A5E000022204461E46FFF79DFF50B93346102253
:10A5F00029462046CDE9087802B0BDE8F041FFF7D2
:10A6000091BF02B0BDE8F0812DE9F04F002317881B
:10A61000138090F82D3085B006460D4614465BB386
:10A62000082F01D80C2028E102A8FFF773FF0028AB
:10A6300040F023812388DDF809100822EA5423889A
:10A6400001339BB21B222380EA54238801339BB23F
:10A65000EA182380E950BDF80D30938023889DF8D7
:10A66000082006339BB212F0FE0218BF012223809D
:10A67000EA54238801332380B378FBB12388043361
:10A68000BB42CFD802A8FFF747FF002840F0F58073
:10A6900023880322EA54238801339BB219222380A2
:10A6A000EA542388BDF8082001339BB2E9182380BF
:10A6B000EA54120A4A70238802332380F2789AB14E
:10A6C0002388D91CB942ADD80221E954238801332B
:10A6D0009BB201212380E95423880B449BB2238041
:10A6E000EA5423880B4423807268AAB12388D91CBA
:10A6F000B94297D8022192F90020E9542388013306
:10A700009BB20A212380E954238801339BB2238022
:10A71000EA542388013323803389002B40F0A18041
:10A72000338A5BB1CDE900472B460722032106F1AE
:10A730001000FFF74DFF002840F09F80338B5BB186
:10A74000CDE900472B461522142106F11800FFF72A
:10A750003FFF002840F09180326A002A40F090804C
:10A76000D6F82480B8F1000F30D0B8F80430218832
:10A77000981C8A1C0244BA423FF654AFFE283FF6AA
:10A7800051AF03336B54238801339BB2FF222380E4
:10A79000EA54238801339BB22380B8F80020EA549E
:10A7A000E918120A4A702088023080B22080B8F876
:10A7B00004205AB1D8F8081000296BD0284404F0BE
:10A7C000FCFD2388B8F804201344238096F82C302D
:10A7D000002B40F09880307800284ED03388012B31
:10A7E00058D0228802F1020CBC453FF61BAF01286D
:10A7F00005D17378023313449F42FFF413AF023F35
:10A80000BF1ABFB202A905EB0C00ADF80870FFF744
:10A8100085FE90BB3178BDF80830022900F0B98080
:10A8200072789A4202D39F4280F0B180012940F0B1
:10A83000B280974293B2C0F0AE80ADF808300821E4
:10A84000BDF80830FE2B3FF6EDAE22880133AB5445
:10A850002288013292B22280A95422881344238094
:10A860000BE0CDE900472B460622022106F1080045
:10A87000FFF7AEFE00283FF453AF05B0BDE8F08F00
:10A88000B4F800C00CF10603BB423FF6CBAE118812
:10A89000052901D80720F0E76FF4486E01EB0E039D
:10A8A0009BB24FF27D3E7345F4D95388052BF1D905
:10A8B0006FF44860181880B27045EBD94FF6FF70FE
:10A8C000814201D09942E5D8052305F80C30238850
:10A8D00001339BB212212380E954238801339BB2B8
:10A8E00023801188E954E818090A4170238802334B
:10A8F0009BB223805288EA54E918120A4A702388CE
:10A90000023323802CE7B36A002BC3D04FF000083A
:10A910004FF00C0A4FF0160BB16A5FFA88F20AFB8F
:10A9200002F201EB0209B9F80430981CFE283FF648
:10A9300079AE208803332B54238801339BB22380C4
:10A9400005F803B0238801339BB223808A5AEA5466
:10A95000E918120A4A702088023080B22080B9F8C3
:10A9600004205AB1D9F80810002993D0284404F0E3
:10A9700024FD2388B9F804201344238096F82C2062
:10A9800008F101085FFA88F39A42C5D823E7092144
:10A9900056E79F42FBD2ADF8087050E730B5C8B11A
:10A9A000F2B10024651C8D4206DA1588A54212D842
:10A9B00005196D789D420ED1A14211D9005D48B1B3
:10A9C000013880B230B10234A3B210FA84F4A1424B
:10A9D00006DB138030BD055D01352C44A4B2E1E7F0
:10A9E0000020F7E713B513460022ADF806200DF15D
:10A9F00006020446FFF7D2FF10B1BDF80630E0189A
:10AA000002B010BD72DF704773DF704738B50122A6
:10AA100004460D46B0F81414D0F81004FFF7E2FF16
:10AA200000B1057004F13C0204F5826104F15400A8
:10AA3000BDE83840FFF7E6BF80F830107047F8B542
:10AA400004460F46002973D0002871D091F87A305F
:10AA50001BB191F89830002B6CD1D7F8A030042BA3
:10AA600068D0D7F89C30042B64D04FF0000C84F8E9
:10AA700002C007F178060FCE251D0FC50FCE0FC5FA
:10AA800096E8070085E8070084F830C0D7F8A430BE
:10AA90006363D7F8A830A36304F582624FF6FF73AF
:10AAA000C4F826C4A4F82434C4F82024C4F829C463
:10AAB00022780AB984F8543094F82430002B14BF5B
:10AAC000EE231F2304F15501C4F81014A4F8143424
:10AAD00004F214423846FFF797FD40BB94F8243047
:10AAE000002B14BFEE231F2304F23121C4F81814E5
:10AAF000A4F81C3404F21C4207F13C00FFF784FD6B
:10AB0000A8B9A369A4F848304FF480730125A4F8CC
:10AB1000503063692064014684F83C50636404F15A
:10AB20003C0204F15400FFF76DFF00B92570F8BD39
:10AB30000E20FCE70720FAE7F8B5077804460D4633
:10AB4000002F00F001810023C0F82634C0F829341A
:10AB5000C388817000F226460BB1012903D0E37946
:10AB600043B1022D06D1636BABB1012284F82D24D1
:10AB70000820984704F2274304F22D4113F8012BD3
:10AB800012B99942FAD117466B1E032B4ED8DFE853
:10AB900003F0050B0F1284F82D34EBE7A3791BB1FA
:10ABA00094F8243003B95FB9E3790BB1002F3FD19A
:10ABB000237A002B3ED1637A002B0CBF002504259D
:10ABC000636BA570002B37D0033D012D34D862791B
:10ABD00092B394F82E247ABB84F83024012284F8AE
:10ABE0002F240720984704F13C051822002128460D
:10ABF00004F00CFCE26A531E0121022B28BF0A4616
:10AC000084F8512094F8242084F83C1032B1A36ACF
:10AC1000581E022828BF0B4684F85230A378042B14
:10AC20001CD8DFE803F0780D23365A000025C7E76B
:10AC30000225C5E70325C3E7002384F82F34D2E7B4
:10AC4000012384F831300023C4E91063C4F82034B0
:10AC5000022384F83C308023A4F84830A378002BEA
:10AC60005DD1636B002B6BD1002068E00223002ACA
:10AC700084F8313014BF0723032384F83C30236960
:10AC8000A4F848300023C4F82034E36826646364E1
:10AC9000E4E763696364A369A4F8483012B106234A
:10ACA00084F83C306379B3B194F82E349BB994F8AE
:10ACB000303483B1022384F8503004212046FFF75A
:10ACC000A5FE0028CAD1052384F8313004F582633B
:10ACD000C4F82034C2E70323F6E7E3696364236A18
:10ACE000A4F8483012B1062384F83C30637983B16C
:10ACF00094F82E346BB994F8303453B1022384F8AD
:10AD0000503004212046FFF781FE0028A6D10623FB
:10AD1000DAE70423D8E7002384F831309EE7D4F83B
:10AD200020142A4604F15400FFF76CFE38B994F859
:10AD3000301094F85400FFF767FE002891D0F8BD5A
:10AD400094F8310098478FE70820F8E70388112B23
:10AD500010B50C460AD0262B1FD0102B05D1C37B73
:10AD6000012B02D18388A1F8243410BD00228388EE
:10AD700081F82E24B1F824249A42F6D10B79002BC5
:10AD8000F3D101212046FFF7D7FE0028EDD0A36BB9
:10AD9000002BEAD0BDE810401847037A013B012B95
:10ADA000E3D8897805230131B1FBF3F303EB830387
:10ADB000C91AC9B2E6E775DF704776DF70477ADFF8
:10ADC00070477BDF70470000034B1A8882420CBF3C
:10ADD00018460020704700BF0C2C0020024B9B69D6
:10ADE00003B11847704700BFF02B002073B585B240
:10ADF0002846FFF7E9FF044638B3174E027A337B43
:10AE00009A420CD200F10A012846FFF7D4FFF0B1B4
:10AE100011281AD002B0BDE87040FFF7DFBF002351
:10AE20000372337C43B13B212846FFF7C6FF30F065
:10AE3000080301D0FFF7D2FF736933B100228DF808
:10AE40000420ADF8065001A8984702B070BD237ADF
:10AE500001332372F9E700BFF02B002037B50B4612
:10AE6000497A0F4A79B9D2E901141D7A0246002DB8
:10AE700018BF21465868FCF7FCF978B103B0BDE86B
:10AE80003040FFF7ABBF00211972536933B1012283
:10AE9000ADF806008DF8042001A8984703B030BD36
:10AEA000F02B00204B8802889A4212D842889A429E
:10AEB0000FD380888B8840F2F311884294BF021A26
:10AEC000421A9A4205D80844984234BF0020012013
:10AED00070470020704700000388122B70B50146B0
:10AEE00059D004D8102B1ED0112B44D070BD502B3C
:10AEF000FCD12F4BC288DB899A42F7D1038A022BFF
:10AF0000F4D186883046FFF75FFF05460028EDD074
:10AF100001F1120000F01FFA38BB6868FCF7C1F9B4
:10AF20000028E3D009E0C37B012BDFD14FF6FF708F
:10AF3000FFF74AFF054620B90420BDE87040FFF73F
:10AF40004DBF1C4A8E880680002303721368C0F828
:10AF50000A305368C0F80E3010310A30FFF7A2FFF4
:10AF6000134B6872DB89002BC0D129463046BDE8FF
:10AF70007040FFF773BF8088FFF726FF0446002864
:10AF8000B4D04068FCF78DF908B1FFF727FF4FF602
:10AF9000FF732380AAE786883046FFF715FF054632
:10AFA0000028A3D008310A30FFF77CFF6872DCE785
:10AFB000F02B0020202C0020F8B5064648B30546AB
:10AFC0000FCD154F3C460FC495E8070084E80700F5
:10AFD0003068124C3C60B0B1FFF7F1FEC0B9326886
:10AFE00013682360536863600D480E4A4FF6FF7381
:10AFF00003800D4B40F8043F0021FCF72FF9002897
:10B0000018BF032004E02046FFF7DBFE0028EBD04A
:10B01000F8BD0E20FCE700BFF02B0020202C002004
:10B020000C2C0020EDAD0200282C0020F7B51746AF
:10B0300001900E4691B1019C6CB100252C46294629
:10B0400001A8FDF774F918B13946A8B2B047013428
:10B050000135142DF3D1204603B0F0BD0C46FAE7BC
:10B060000AB1FDF743B9FDF758B973B50191019CD9
:10B0700006466CB100252C46294601A8FDF757F974
:10B0800018B106EB440301349D800135142DF3D132
:10B090003046346002B070BD2DE9F04703888488E3
:10B0A000103B8CB005460A2B23D8DFE803F006429C
:10B0B00022222222222222674900DFF8F080D8F8DB
:10B0C0000830DB430093D8F804106846FDF794F984
:10B0D000009901A8FFF7C9FF0DF108090027019B9E
:10B0E0009F4209D3132C14D9294AF0210420FBF7DD
:10B0F00093FF0CB0BDE8F08739F802AB00260136AB
:10B10000514608EB8600FDF708F91E2EF7D10137EE
:10B11000E5E720482146FDF7E9F81F482146FDF7FD
:10B12000E5F8EB7B022BE4D11C482146FDF7DEF865
:10B13000DFE7184821460CB0BDE8F047FDF7EDB851
:10B14000027A17483F2A4FEA1215214694BF00227F
:10B150000122FFF785FF022D94BF00220122114832
:10B160002146FFF77DFF012D0F4894BF00220122E9
:10B1700021460CB0BDE8F047FFF772BF037A002B01
:10B18000B7D1427A0648C2F3C0022146F1E700BFB8
:10B1900050000300502C00204C2C0020542C002088
:10B1A000602C00205C2C0020582C0020482C002013
:10B1B0001328014602D80248FDF7B9B800207047AD
:10B1C0004C2C002007B50190FFF7F2FF019930B138
:10B1D0000448FDF7ACF8002814BF0220012003B09A
:10B1E0005DF804FB542C002007B50190FFF7E0FF49
:10B1F000019930B10448FDF79AF8002814BF0220E5
:10B20000012003B05DF804FB502C002007B501902D
:10B21000FFF7CEFF019928B1044803B05DF804EBB5
:10B22000FDF785B803B05DF804FB00BF582C002083
:10B2300007B50190FFF7BCFF019928B1044803B09E
:10B240005DF804EBFDF773B803B05DF804FB00BFD5
:10B250005C2C002007B50190FFF7AAFF019928B1E7
:10B26000044803B05DF804EBFDF761B803B05DF886
:10B2700004FB00BF602C002010B5034B0446596846
:10B28000FFF7F3FE204610BD482C002070B50A4E93
:10B29000054630460C46FDF74AF858B12846FFF7F8
:10B2A00087FF38B10734294606EB8400BDE87040BB
:10B2B000FDF73DB8002070BD482C0020F8B50B4FBD
:10B2C000054638460C461646FDF731F860B128466B
:10B2D000FFF76EFF40B107343246294607EB840082
:10B2E000BDE8F840FFF7BCBEF8BD00BF482C002009
:10B2F00073B50B4D019204460E4601462846FDF7F4
:10B3000016F850B1063405EB8404019A60683146A2
:10B3100002B0BDE87040FFF789BE02B070BD00BF4B
:10B32000482C0020AADF7047ABDF704700230138AC
:10B330000B70042806D8DFE800F00306080A0C00AA
:10B3400011230B7070472123FBE73123F9E7122308
:10B35000F7E72223F5E7008800F0010070470B783B
:10B3600003704B78437002207047F0B58B7891B032
:10B370000C46012B38BF012300278DF80E300546FF
:10B380000B88607CADF80C306946ADF800708DF824
:10B390000270FFF7CBFFA07C0DF10101FFF7C6FFA4
:10B3A0001646237BE27B217D43EAC203227C43EAEB
:10B3B00002139DF80220B94222F0190203F019038A
:10B3C00014BF02210121134361F342031C223946B9
:10B3D00009A88DF8023004F019F8637B13F0300FE0
:10B3E00014D00DF10901E07CADF808708DF80A70F9
:10B3F000FFF79CFF11238DF808309DF80A300121DA
:10B4000002AA61F342038DF80A300E92637B8DF835
:10B410002430A37B8DF825300023CDE90633089333
:10B4200003AB0493A388ADF81C30A368CDF814D007
:10B430001BB1E288ADF818200893A36973B301A982
:10B440000022ADF804208A701A88ADF82C205A88A2
:10B45000ADF82E205A680D91187B0A92FFF766FF0F
:10B46000A3690DF10501587BFFF760FFA3699A7A84
:10B47000197A41EAC201DA7A9B7B41EA02119DF80E
:10B480000620002B01F0190122F0190214BF02233B
:10B490000123114363F342018DF80610E36903B100
:10B4A0000C93334604AA09A92846FFF73BFF11B0C5
:10B4B000F0BDF0B50C4689B01646102205460021B5
:10B4C0000DEB020003F0A2FFA378A079012B38BF97
:10B4D00001238DF80A3001AF2388ADF808303946D2
:10B4E00002AB0393FFF722FFE0790DF10501FFF7AF
:10B4F0001DFFE2786379217A049743EAC203227937
:10B5000043EA02139DF80620002922F0190203F0F5
:10B51000190314BF02210121134361F342038DF883
:10B5200006306389ADF81430A389ADF81630E3898D
:10B53000ADF8183032462369079303A92846FFF770
:10B54000F3FE09B0F0BDA0DF7047A1DF7047ADDFAB
:10B550007047B3DF7047B4DF704710B504464088CA
:10B5600000F01CFDA0802046BDE8104001F092BC18
:10B5700030B587B005460C461422002101A803F01F
:10B5800045FF072301A88DF80430ADF80650039459
:10B59000FFF7E3FF07B030BD70B586B00546142253
:10B5A000002101A803F032FF4FF6FF739D42ADF872
:10B5B00006503FD0284600F0E3FB1128044633D064
:10B5C00016D8D8B10B2820D02046FDF7B9FC1A4E6A
:10B5D0001A4902461A48361AF608360446F001009F
:10B5E0002B46FBF7FAF921462846FFF7C1FF03E097
:10B5F00043F202039842E7D1002216E00E238DF8B1
:10B60000043001A8FFF7A9FFF6E70F238DF80430F7
:10B6100009480B4B0B49C01AC00800042A4640F0E9
:10B620000200FBF7D1F9ECE70122074B2846197815
:10B63000FFF744FE06B070BD34F602003D01030082
:10B64000ACF50200BD000300CB2C0020FFF7A4BF27
:10B65000024B034918780022FFF74ABECD2C002088
:10B6600065B602002DE9F047DFF8348188B098F81C
:10B6700000100446FFF70AFE0646002840F08480CA
:10B68000204600F0E1FB0828054632D016D808B362
:10B6900006285BD02846FDF753FC3D4F3D49024646
:10B6A0003D483F1AFF083F0447F001002346FBF7DF
:10B6B00094F929462046FFF75BFF09E043F20203B5
:10B6C000984205D043F20143984259D01128E1D164
:10B6D000012546E03146142203A803F097FE10230B
:10B6E00003A88DF80C30ADF80E400126FFF735FFAA
:10B6F000EEE70DF10600FFF72CFF354601274FF06E
:10B70000020A0DF10809BDF80630BB421ED900221D
:10B7100049463846CDE903A9FFF71DFFB0B9BDF88A
:10B7200008303DB942F605255B1B5D425D4101379E
:10B73000BFB2E8E742F602129342F8D101AB03AA86
:10B74000394620460493FFF702FF30B1204600F04F
:10B7500025FC00F0A5FB002503E0BDF80430002B1C
:10B76000F4D00E4B2A4619782046FFF7A7FD98F82B
:10B7700000103246204608B0BDE8F047FFF79EBDF6
:10B780002046FFF709FFA3E708B0BDE8F08700BF38
:10B7900034F602008E010300ACF50200CD2C00202F
:10B7A000CE2C002013B5044600F0F8FB00236A46B7
:10B7B000092100F08CFF052805D1044B01221978DE
:10B7C0002046FFF77BFD02B010BD00BFC92C002052
:10B7D00008B5084B084918780022FFF789FD024692
:10B7E00030B9064B06491878BDE80840FFF780BD20
:10B7F00008BD00BFCC2C002041B80200C92C00209D
:10B8000005B8020037B542F6A623ADF800300A4B62
:10B81000044618680190012501AA69462046ADF842
:10B820000250FFF790FE28B9044B2A4619782046AB
:10B83000FFF744FD03B030BD5C030300C82C0020BB
:10B8400070B5012186B006462A48FCF7A6FD0446DD
:10B85000BFF35F8F002849D1304600F035FA8628C3
:10B8600005461ED017D8A8B3112841D02846FDF7A9
:10B8700067FB214C214902462148241AE40824048C
:10B8800044F001003346FBF7A8F829463046FFF79D
:10B890006FFE002403E043F202039842E6D1224601
:10B8A0001AE02146142201A803F0B0FD06238DF80A
:10B8B00004301148124B1349ADF80660C01AC00895
:10B8C0000004324640F00200FBF77EF801A8FFF7C3
:10B8D00044FEE4E7012402460B4B30461978FFF79B
:10B8E000EDFC1CB9BFF35F8F024B1C6006B070BD4E
:10B8F0000122F1E7C42C002034F602000302030009
:10B90000ACF50200CE010300CC2C002038B5037842
:10B910000446A3B94088FFF73FFE6588284600F03B
:10B9200081FA28B1064B012219782846FFF7C6FC98
:10B930006088FFF737FFBDE83840FFF749BF38BDE3
:10B94000CD2C002037B50378082B044630D1427A3D
:10B9500072BB057A072D1BD0082D2ED0012D27D1C3
:10B9600080886A46294601F0F1F808BB019B1B78E4
:10B97000F3B1A08800F040FB4FF6FF73984217D058
:10B98000124B2A461978FFF799FCFFF761FE0FE08A
:10B99000808800F031FB4FF6FF739842044607D0D1
:10B9A0000B4B01221978FFF789FC2046FFF7FAFEBE
:10B9B00003B0BDE83040FFF70BBF064B1968012903
:10B9C000F6D1BFF35F8F1A60F2E700BFCD2C0020E5
:10B9D000CC2C0020C42C002037B5134B0022CDE91D
:10B9E0000032124B0D4619780446FFF767FC1049E8
:10B9F000104B2046002D08BF0B46019300F0CEFAF5
:10BA00000022694600F0D0FE60B1FDF799FA0A4BBA
:10BA10000A4902460A481B1ADB081B0443F00200CD
:10BA2000FAF7D2FF03B030BD01000900C92C002095
:10BA3000600303006403030034F6020040020300C5
:10BA4000ACF5020070B503888488502B86B005469B
:10BA500039D00FD8352B49D0362B00F08D80584B7C
:10BA6000584918780022FFF743FC06B0BDE8704043
:10BA7000FFF7EEBD522B22D0542BF0D1142200211F
:10BA800001A803F0C3FC112320468DF80430ADF863
:10BA9000064000F083FAADF8080000F001FA4A4BC6
:10BAA000204619780022FFF709FC484B20461978F8
:10BAB0000022FFF703FC01A8FFF74FFDCFE7204668
:10BAC000FFF76AFDCBE7037B012BC8D1827A012AFD
:10BAD000C5D1018942F602139942C0D13C4B2046A0
