:020000022000DC
:1060000000000120756302005D6302005F6302000F
:106010006163020063630200656302000000000028
:1060200000000000000000000000000067630200A4
:1060300069630200000000006B6302006D630200F0
:10604000A99A02006F630200AD9E02007DA40200C7
:106050008DA40200A5A80200619D02006F630200EA
:106060006F6302006F6302006F6302006F630200E0
:106070006F6302006F6302006F6302006F630200D0
:106080006F630200B97802006F6302006F63020061
:106090006F6302006F630200410B03006F63020035
:1060A0006F6302006F6302006F630200E9AB0200DE
:1060B0006F6302006F630200000000000000000038
:1060C0006F6302006F6302006F6302006F63020080
:1060D0006F6302006F6302006F6302000000000044
:1060E00000000000000000000000000000000000B0
:1060F00000000000000000000000000000000000A0
:10610000000000000000000000000000000000008F
:10611000000000000000000000000000000000007F
:10612000000000000000000000000000000000006F
:10613000000000000000000000000000000000005F
:10614000000000000000000000000000000000004F
:10615000000000000000000000000000000000003F
:10616000000000000000000000000000000000002F
:10617000000000000000000000000000000000001F
:10618000000000000000000000000000000000000F
:1061900000000000000000000000000000000000FF
:1061A00000000000000000000000000000000000EF
:1061B00000000000000000000000000000000000DF
:1061C00000000000000000000000000000000000CF
:1061D00000000000000000000000000000000000BF
:1061E00000000000000000000000000000000000AF
:1061F000000000000000000000000000000000009F
:10620000354936480A1A02D0072291438D4634494F
:1062100034480A1A06D00722914381F309880222E2
:1062200082F3148830483149314A00F044F831484B
:106230003149324A00F03FF831483249324A00F0E1
:106240003AF832483249334A00F035F83248334997
:10625000334A00F030F833483349344A00F02BF821
:1062600033483449344A00F026F83448344900228F
:1062700000F02CF833483449002200F027F8334866
:106280003349091A082902DB002202604160314AC1
:1062900090471F481F49884205D00268043003B464
:1062A000904703BCF7E700208646EC46002000211B
:1062B000294A9047FEE7884207D0521A05D0037852
:1062C00001300B700131013AF9D17047884202D098
:1062D00002700130FAE770470000012000E0002062
:1062E0000000012000000120EC380300842200207F
:1062F000CC220020D0630200D063020054110300BE
:10630000EC3803008422002084220020FC120300C9
:10631000FC120300FC120300FC120300FC12030039
:10632000FC120300FC120300FC120300EA38030015
:1063300034390300CC220020CC220020CC220020C3
:10634000583F0020583F0020583F0020583F002071
:10635000585F00209D63020049EC0200FEE7FEE763
:10636000FEE7FEE7FEE7FEE7FEE7FEE7FEE7FEE705
:1063700000F002B8FFF7FCBF0F484FF00701884359
:1063800085460E4880470E48016841F4700101605F
:10639000BFF34F8FBFF36F8FFFF732BF09480A4932
:1063A0000A4A884207D0521A05D0037801300B7090
:1063B0000131013AF9D170470000012041960200F5
:1063C00088ED00E0E8120300702200208422002003
:1063D0007047000007B5044B0093044A402300F0C7
:1063E00032F803B05DF804FBF1630200CD22002017
:1063F0002DE9F84388461446B2B10F4B0F4E0325E2
:10640000002743F00109224608EB0701002008F0AD
:106410008DFF0744241A48B933782BB14FF47A40E2
:10642000C847013D02D13570BDE8F88301233370C0
:10643000002CE8D1F8E700BF00130300CC220020B5
:10644000704708F0A3BFF0B595B01D461646084644
:106450000C4602F0FFFF1A9B0D93CDE9086500255D
:106460002B46082205A920460A958DF82C500C953C
:1064700003F00CF8079B0293069B03939DF81430DE
:106480008DF8115003F00302012A1DD1BDF814202C
:10649000059DC3F3C203C2F383168DF81030B2001A
:1064A00008230EA9204602F0F1FFC5F3952508AB9D
:1064B0000093324602AB0EA9284600F04BFB204663
:1064C00002F0CCFF15B0F0BD022AF8D1BDF816508D
:1064D000C3F3C203C5F389158DF810300827082DC2
:1064E0002E4628BF08263B4632460EA9204602F01B
:1064F000CDFFAD1B08AB02AA31460EA8374400F011
:106500008DFB002DEBD1DAE708B5FFF79AFF0448C1
:10651000042100F089FA034B01225A7108BD00BF23
:10652000D812030084220020037813F0040216D04E
:1065300003F00303012B03D0022B09D00120704785
:106540000A6800880232C0F3831002440A60F5E74B
:106550000B684288023303EB92130B60EEE71046A0
:10656000704700002DE9F04FDFF81CA187B00F46FF
:1065700000230446861C0DF1070015468DF80730F0
:1065800001F02CF8DAF804203A60DAF8083003F564
:1065900080739B1A0AF21C470AF583690AF21448B1
:1065A000B3421AD30020002D69D004F00F039B01E1
:1065B00043F0050363F30F00DAF80430DAB2033274
:1065C00033444AF822009DF80700CAF8043001F06D
:1065D00029F8012007B0BDE8F08F0121384602F00C
:1065E000A5F9484602F0BDF9404602F0BAF9DAF8DA
:1065F00008000290C0B203300AEB800002A9FFF746
:1066000093FF029B30BBDAB20AEB8202D16803919E
:106610009A1C0133DBB20AEB83030292D3F80CB06D
:1066200001F00303012B22D0022B15D083464046F4
:1066300002F09AF910B1029BCAF808305946384660
:1066400002F074F9DAF80830DAF8042003F5807300
:106650009B1AA5E7D8B2CEE7BDF80E30C3F3891375
:1066600003334FEA1B4B02EB93030293DFE7BDF8C2
:106670000C30C3F383134FEA1B4B1344F5E7A40517
:1066800044F0060098E700BFE0230020064B0748CF
:1066900010B500221A7002F096FE044610B90448A4
:1066A00002F03EFF204610BDE0230020D41103007D
:1066B0003C13030030B50A4C71B10A4A0A49121B57
:1066C000D20800239A4201D1002030BD31F8235076
:1066D000854202D00133F5E7034654F83300F4E76E
:1066E000E8110300D812030084220020094B01396D
:1066F00003EBC000032909D8DFE801F00A02040611
:106700000420704700797047407970470020704737
:1067100002207047E8110300034BD3E90130C31A8C
:1067200058425841704700BFE02300202DE9F04156
:1067300086B0FFF7F1FF0546002840F0ED80774C6A
:10674000C4F81804BFF34F8FA3680293DBB203337E
:1067500004EB830002A9FFF7E7FE029B18B1D4F80F
:106760001824002A5AD0DAB2991C013304EB8202B1
:10677000DBB204EB8303D268DB68049302F003030B
:10678000022B0392029154D1BDF80E306448C3F33A
:106790008917502F3E4628BF502606F1080166F3A0
:1067A0008F13C1F30901ADF80E3002F024FE054647
:1067B000002800F09C8002F04DFE0023082203A96F
:1067C000284602F059FE0299CB43DBB20133C9B22D
:1067D0000331B6EB830F4FEA830204EB810125D925
:1067E0005FFA82F80823A6EB0806284602F044FE6A
:1067F000F6B208F108034B4903F0FC033246284681
:1068000002F03AFE029B033703EB97070297D4F896
:106810001834002B43D1D4F8106453E062689A42D4
:1068200094D8A260284606B0BDE8F081082332461D
:10683000E5E7012B5BD1BDF80C303948C3F3831178
:10684000062928BF062161F38913023101F00F01E7
:106850008900ADF80C3002F0CEFD0546002846D088
:1068600002F0F8FD0023082203A9284602F004FEE6
:106870000026BDF80C20C2F38312B300964203F148
:106880000803C4D202994A1CC9B20331029204EB34
:1068900081010422284602F0EFFD0136E9E728468F
:1068A00002F0DCFDFFF738FF80F00100C5B2B9E768
:1068B000F3685B7923B1336829461B6830469847F3
:1068C000F3681E68002EF3D1284602F0C7FD0DF1D3
:1068D00007008DF8076000F081FED4F818340BB97A
:1068E000029BA3609DF8070000F09CFEDAE7D4F855
:1068F000104454B90C4B0D480D49C01AC00800048F
:1069000040F0020000F05CF8CCE7236820469B686A
:106910009847E3681C68ECE7002583E7E023002044
:10692000D4110300EC230020E81103002812030017
:10693000241303002DE9F34704460E46924601A9AD
:10694000012218469946FFF70DFE1B4F10B3019D1B
:106950004FF00008AA1CC84508EB020123D11748D4
:10696000002101F09CFF80F31000000440EA144075
:10697000E4006B1C04F03804DBB2EDB244F0010417
:1069800007EB8303033544EA881444EA8624D8607D
:1069900047F825403B781BB1FFF7C8FE0028FBD124
:1069A00002B0BDE8F087C9B207EB81015AF8283080
:1069B000CB6008F10108CEE7E0230020FC2700208F
:1069C00000231A46FFF7B6BF07B50123019201AABB
:1069D000FFF7B0FF03B05DF804FB07B5CDE9002376
:1069E00002236A46FFF7A6FF03B05DF804FB1FB55C
:1069F000CDE90123069B039301AA0323FFF79AFF26
:106A000005B05DF804FB7FB5CDE90123089B039336
:106A1000099B04930A9B059301AA0523FFF78AFFAC
:106A200007B05DF804FB000030B50F4CD4F810241B
:106A300003460020114631B9D96808714AB9C4F833
:106A400010340A6030BDC9680D79854206D00968E6
:106A5000F1E7D26814680C601360F3E701300A288C
:106A6000E8D14FF0FF30EDE7E023002038B5084BC8
:106A70000125D3F810441D7004B938BDE3685D7179
:106A8000236820465B689847E3681C68F4E700BF0A
:106A9000E023002030B5C38885B004460D4633B1ED
:106AA000144A00921449154A284601F0C0FF217A81
:106AB00005291DD0637A4BB1A088FFF717FE104B54
:106AC000104953F82020284601F0B1FF227A0E4BDE
:106AD000A08853F8222003920021FFF7EBFD039AD0
:106AE0000A490346284605B0BDE8304001F09FBF83
:106AF00005B030BD681303005013030048130300B2
:106B0000DC1303006D130300001403007013030073
:106B100007B503460846197A052911D05B7A2BB1CF
:106B2000094A0A49019001F082FF01980849019041
:106B300001F07DFF019803B05DF804EB01F06CBF3C
:106B4000002AF8D0F2E700BF681303006D130300BA
:106B5000FC3003002DE9F04385B01F460C9D002357
:106B600095F80C902B7306460C46904629463846FD
:106B7000FFF790FFB8F1060F09D8DFE808F004121C
:106B8000181F283340003146284601F050FF0022EC
:106B900029463846FFF7BCFF85F80C9005B0BDE8E4
:106BA000F08322683146284601F041FFEFE7D4E93F
:106BB00000233146284601F03AFFE8E7A368009336
:106BC0003146D4E90023284601F031FFDFE7E368CE
:106BD0000193A36800933146D4E90023284601F0CD
:106BE00026FFD4E723690293E3680193A368009327
:106BF0003146D4E90023284601F019FFC7E763694D
:106C0000039323690293E3680193A36800933146D9
:106C1000D4E90023284601F00AFFB8E708292DE946
:106C2000F74F80460E4617461C463DD800251B7B75
:106C30002573214610460193FFF72CFFDFF88CA047
:106C4000DFF88CB0AE4232D918F8052059462046FC
:106C500001F0EDFE0135082DF4D11B49DFF874A0D9
:106C6000DFF874B0204601F0E2FE4FF000094E4517
:106C700024D918F809507E2D1ED828460AF080F92C
:106C8000002814BF2A462E225946204601F0CFFE86
:106C900009F10109B9F1080FE9D10122214638466D
:106CA000FFF736FF019B237303B0BDE8F08F514619
:106CB000204601F0BCFECDE72E22E5E751462046F6
:106CC00001F0B5FEE4E700BF841303008013030066
:106CD0007A1303008213030086130300C30710B561
:106CE00007D4F023054A4008145C2340194311548B
:106CF00010BD0901C9B20F23F4E700BFC828002066
:106D000030B5094B1C78094B196800239C4202DC02
:106D10000022104630BD11F83350854201EBC3020A
:106D2000F7D00133F2E700BF98280020D8280020D0
:106D300013B504460191FFF7E3FF38B143682BB167
:106D40000199204602B0BDE81040184702B010BDBE
:106D5000034B044819680022490800F052BB00BFE9
:106D60009C280020A028002010B5C0B2FFF7C8FF63
:106D70000446007802F0EAFF63785A1E53425341FA
:106D8000834208D1044BD3E90023134303D1BDE868
:106D90001040FFF7DDBF10BDC028002037B5430805
:106DA000374AD35CC2074CBF1B0903F00F030446EC
:106DB0000D46042B25D8DFE803F003262F3C4000C6
:106DC000F9B10121FFF78AFF00230DF107008DF8CB
:106DD000073000F003FC0120A4F12003C4F12001DE
:106DE000284A20FA01F100FA03F30B43A040D2E94C
:106DF000004120430B43C2E900039DF8070000F067
:106E000011FC03B030BD002918BF0221204603B099
:106E1000BDE83040FFF762BF49B10321FFF75EFFD5
:106E20000121204603B0BDE83040FFF781BF0121BA
:106E3000ECE70029E5D10421E8E709B10321E5E702
:106E4000FFF74CFF29462046FFF772FF0DF10700C0
:106E50008DF8075000F0C2FB0120A4F12003C4F11B
:106E60002001084A20FA01F100FA03F30B43A04085
:106E7000D2E9004124EA000021EA0303BBE700BF96
:106E8000C8280020C02800202DE9F041124E134FE1
:106E900000243378A34208DC114BD3E900231343C9
:106EA00018D0BDE8F041FFF753BF3D6805EBC408BB
:106EB00015F8340002F04AFF98F801305A1E534288
:106EC0005341181A4142414115F83400FFF766FF5B
:106ED0000134DEE7BDE8F08198280020D8280020A2
:106EE000C0280020092AF7B505460C4616463ED9AB
:106EF00002F064FEE8B11F4B1F481D601F4B204F7E
:106F00001C70204B002110221E600AF09EF81E4BC0
:106F100000200021C3E90001013CE4B20326FF2C5C
:106F20000DD11A4A1A48002103B0BDE8F04000F024
:106F30005DBA02F00BFE0028DDD003B0F0BD9DF875
:106F4000063015F834008DF8046005EBC40223F018
:106F500007038DF8063001A993788DF805303A467D
:106F600002F036FE013CE4B20028D8D0E5E7072065
:106F7000E3E700BFD8280020C82800209828002078
:106F8000696D02009C280020C0280020896E020044
:106F90002014030070B5084D084E00242B789C4245
:106FA00001D3002070BD3368012113F8340002F0D2
:106FB00087FE0134F2E700BF98280020D82800207F
:106FC00082B001238DF807309DF80730114B18600F
:106FD000596044F2010188429A6012D044F20201E1
:106FE000884206D1DA60DA6812689A61DA68526813
:106FF000DA6172B69DF80730002BFBD162B602B0A1
:1070000070471A611A6992685A611A6912689A611E
:107010001A69ECE7DC28002000B583B002900091EB
:10702000019244F2010071466A4600F003F803B091
:1070300000BD0000F0B5064687B00F46154672B693
:10704000FFF714FDFFF772FB0028FBD1244B254C02
:10705000E41AE40844F2010324049E4244F00104CB
:107060002BD00BD8012E14D041F201039E4222D026
:107070001D493A462046FFF7A7FC0EE044F2020302
:107080009E42F5D1D5E9003218492046FFF7A5FC0C
:1070900003E017492046FFF793FC164BD3F8F03076
:1070A000DB0700D500BE2A463946304607B0BDE8AA
:1070B000F040FFF785BF1049ECE7AA68059210463B
:1070C00002F092FA296802970191696800910346DB
:1070D0000A49059A2046FFF796FC0949DAE700BFFE
:1070E000E811030028120300B7140300631403001F
:1070F0002414030000ED00E0411403007D1403009C
:10710000A31403004B1C30B5DB00044612F003004F
:107110009BB20DD1074D2A601A44074B1A60074BEA
:107120001870074B1870074B1C80074B198030BD37
:107130000720FCE70429002000290020FC2800206B
:107140000C290020082900200A2900202DE9F743F6
:10715000DFF8BC80B8F800308B4206460D46174673
:1071600047D300240DF107008DF8074000F036FAF0
:10717000224B234A23481B78008892F800C084459C
:107180005FFA8CF138BF4C1CDBB238BFE4B2A342CB
:1071900028D014781178CBB2884286BF0133DBB295
:1071A000002313709DF8070000F03CFA4FF6FF73C0
:1071B0009C4220D0144B1B6843F8347003EBC40985
:1071C0009EB195B1114BB8F800001B682A463146B4
:1071D00004FB003009F010FFA9F80450002003B0B0
:1071E000BDE8F0834FF6FF74DCE70020A9F8040047
:1071F000F5E70920F3E70420F1E700BF0C290020A0
:10720000FC2800200A290020042900200029002051
:107210000829002070B5104C104D22782B789A4226
:1072200000D170BD0E480F4A2378126806880E48B8
:1072300002EBC301006852F83320898803FB060083
:1072400090470A4922780988D3B2914286BF013318
:10725000DBB200232370E0E70C290020FC2800208B
:107260000829002004290020002900200A290020E4
:1072700010B5D0E90243D1E90202A04272EB030348
:107280002CBF0120002010BDD0E9003018470000BD
:1072900008B50A4800F0F9FA094AD2E90031C018E5
:1072A000084BD3E9002341F10001904271EB030345
:1072B00003D210F1807041F1000108BD8C22002042
:1072C000182900209029002037B505460C460A48A9
:1072D00001A901F018FA60B10570446001A90648DF
:1072E00001F03BFA18B1054800F0D4FA002003B0D1
:1072F00030BD0420FBE700BF7C2900208C22002049
:107300001D4B37B51D78044685B390B3037F03F05A
:10731000FF055BB3FFF7BCFFD4E90223904271EB9A
:1073200003031DD3236903B9237763690093134AC9
:10733000A369019308216846FFF708FF18B1104AB6
:10734000B521FFF769FE22697AB1237F03F0FF05BB
:1073500063B1D4E902319B1841F10001C4E9023163
:107360000848214602F0FBF800E01546284603B025
:1073700030BD0546FAE700BF2029002089720200CF
:10738000CF1403004C15030013B5114B11491868B5
:10739000019008231048582201F080F9044698B95A
:1073A0000E4A0F4801A900F061F9044660B90C4883
:1073B000012100F04DFA01230A4A0948194600F05C
:1073C000AFF9094B01221A70204602B010BD00BF70
:1073D00048150300242900207C2900204D74020058
:1073E0008C220020FFFF7F00202900203AB1036893
:1073F0005A614A1E514251411961002070470720CD
:10740000704738B5037F04460D4683B98261FFF7A4
:107410003FFF2369281841F10001C4E9020103B1CB
:10742000256121460020BDE83840FFF74DBF002010
:1074300038BD0023014603770120FFF745BF000058
:10744000014800F022BA00BF8C2200202DE9F3474A
:10745000064600F005FA40B1584AD2E9003113F16E
:10746000807341F10001C2E900310021304600F093
:1074700006FA38B1524C236823B12068FFF740FF69
:10748000002323600121304600F0F9F920B1FFF715
:10749000FFFE4C4BC3E900014B48494D4B4C4C4F50
:1074A00001A901F06AF9002842D1DFF82081444C9B
:1074B000DFF82491404602F068F82368002872D073
:1074C0007BB12368D0E90252D3E902138D4272EBFB
:1074D00003032AD223681B7F1BB12168404602F0B8
:1074E0003EF8404602F04BF8D0E9027A0546FFF735
:1074F000CFFE381A6AEB010A01287AF1000345DB56
:10750000B0F5350F40D3FFF79BFF324A02444FF4EA
:1075100096030021484600F023F900283ED1236855
:1075200013B9304600F0F4F8256002B0BDE8F087EA
:107530000378012B1DD0022B09D14FF00008204603
:1075400002F01DF8002836D080F81C80F7E73BB920
:1075500041680B7F23B901230B77204601F0FFFF21
:1075600001A9194801F034F901A9174801F005F9FA
:1075700099E741682B68994202D100232B60EFE71D
:10758000204602F005F8EBE7AA68C0E7002148466C
:1075900000F06BF92846FFF7B3FE01E00D28F9D0A3
:1075A0000023236086E7002BBFD1304602B0BDE840
:1075B000F04700F0B1B801233B70D1E71829002053
:1075C00098290020902900207C2900204C150300D8
:1075D00020290020FFFFB4008C22002070B5EFF3BB
:1075E000108672B60C4A946801239CB993600B4BC9
:1075F0000B4DD3F8801029401160C3F88050D3F8A8
:10760000841051604FF0FF32C3F88420047006B933
:1076100062B670BD0370FAE79C29002000E100E02B
:10762000FC06FFBD084B9A6810B55AB150B9EFF38C
:10763000108172B6054A1C6814605C6854609860DA
:1076400001B962B610BD00BF9C29002000E100E036
:10765000435882B03BB10023435043580193019BF0
:10766000012002B070471846FBE70000F8B5204B38
:107670004479204E43F824201F4A204B06EBC404D3
:107680009B1A2279DB081B0432B143F002001C492B
:10769000FFF796F90820F8BD02680C88C2F8084583
:1076A00090F904508A7804795201002DD2B219DB86
:1076B00014494F1987F8002301226D0904F01F04B3
:1076C00002FA04F441F82540427906EBC201012494
:1076D00046F832000C7143F003000B49FFF770F9D4
:1076E0000020D8E7094904F00F040A55ECE700BF71
:1076F000B0290020A8290020E81103003812030057
:107700005815030000E100E07A15030014ED00E0D5
:10771000036801221A607047036801225A607047AB
:1077200073B501F15005AD000068ADB24FF480347F
:107730008C400026C0F80843C0F84843465101F584
:10774000A8714559019522F07F42019D40F8212002
:10775000C0F844430BB1C0F8044302B070BD000050
:107760002DE9F74F0D4622F07F4402684FF4803731
:1077700005F150068F408046B60002EB8500C2F846
:107780004873B6B2C2F80873D2F8041599464FF0A0
:10779000000BD0F84035C0F8401542F806B05B1A2F
:1077A0009259009223F07F43012B009A4FEA850AF9
:1077B0000CD1264B4FF4806043F001039847D8F872
:1077C000003043F806B09B590193019BD8F8001094
:1077D000D1F80465C1F84473A31B23F07F43012B48
:1077E0001CD11A4B05F5A875013443F0010341F88B
:1077F00025404FF480609847D8F80030D3F804351E
:107800009E4209D1D8F800300020C3F84473C3F871
:10781000047303B0BDE8F08F0D20FAE78A44C9F184
:10782000FF13CAF84045D1F80405221A013A22F0A4
:107830007F4203F57F439342EED3002AE2D1013425
:10784000CAF84045D1F804359842DAE790150300AC
:1078500003680222C3F8442309B1C3F80423704724
:1078600000684FF48271FFF7F3BE4FF4803303FAE0
:1078700001F10368C3F84813C3F808137047503187
:107880008900006889B2FFF7E3BE0368D3F80405F6
:107890007047000090F90430002B09DB5A090121E0
:1078A00003F01F0301FA03F34032024941F822308A
:1078B000704700BF00E100E0024B034A1B681068FC
:1078C000184700BFB0290020A829002070B5064D38
:1078D0000646002455F8043B0BB130469847013466
:1078E000042CF7D170BD00BFC029002043880333AA
:1078F00000EB830399420BD382884FF6FF739A42C1
:1079000008D0038833B18068431C584258417047FF
:107910000220704701207047033080B240F2FE33EE
:10792000984230B51FD8134B1A783AB91C895D8933
:107930002C440444A4B2B4F5806F0AD91A7DAAB9C4
:107940009A8BDC8B2244024492B2B2F5806F0DD840
:1079500001220A801446142202FB04335A8910447F
:107960005881002030BD48F20860FBE748F206600D
:10797000F8E700BFF42900200B4A0C495388142073
:1079800000FB0311CB6833B9042049681070012251
:10799000074801F0E1BA07490523137002238B80E1
:1079A000012209680023F3E7D8290020F4290020E8
:1079B00070220020BC2A002007B50023054900934F
:1079C000054A09680548082301F02CFA03B05DF860
:1079D00004FB00BFBC2A0020A41503007022002075
:1079E00007B5002301460093034A0448082301F029
:1079F00019FA03B05DF804FB9C1503007022002007
:107A000013B500230C4600930146084A0848042396
:107A100001F008FA38B9074B142101FB04310123A6
:107A20000B7402B010BD48F20D60FAE79815030020
:107A300070220020F429002037B50A480A4B42681A
:107A40009C88196853880325033305709BB2002076
:107A500000909B0001EB8401044801F0E3F903B0BE
:107A600030BD00BFD8290020BC2A00207022002091
:107A700010B50146044800F046FE1C2204460021D1
:107A800009F0E3FA204610BDA82A002068B1026878
:107A9000084B9A4209D14068074B984207D00133FE
:107AA000984214BF03200120704703207047002034
:107AB000704700BFDEC0ADDEFE011EF12DE9F041D2
:107AC0000D460223154F2B80164600F5805100F11C
:107AD00008044FF001088C420ED2236801330BD00A
:107AE0002046FFF703FF48B10EB186F80080022858
:107AF00009D14FF480632B80BDE8F081A3683A6818
:107B0000934200D93B602B886288033313442B8057
:107B10006388033304EB8304DDE700BFEC29002016
:107B200038B5144B14220D4602FB00302B68446814
:107B300004F58051A3B15C88033403EB84048C42C8
:107B400015D22368013312D02046FFF7CFFE01285B
:107B500008D002280BD00028F1D12C60012038BDBC
:107B60000834ECE76388033304EB8304E7E7002081
:107B7000F5E700BFF4290020426873B504460D46BE
:107B80006AB3234BD9688A4229D31B699A4226D803
:107B900012F0030323D11F490089098988421ED1AD
:107BA0002068916888421AD11B4841688A4203D9EB
:107BB00001F580518A420DD381698A420CD901F5C1
:107BC00080518A4208D201222A80B3FA83F0400908
:107BD00002B070BD1A46F7E748F20963F5E70026E0
:107BE0002E800196288801A9FFF79AFF30B92B88CB
:107BF00001339BB2012B2B80F3D9E9E7019B22686B
:107C000099689142EED16360024B1B892381DFE7C3
:107C100070220020D8290020F42900202DE9F84303
:107C20001C461D4B1B7806460F46154673B382B3A0
:107C30007CB3DFF86C804FF01409A388012B02D9C4
:107C400048F2096020E009FB03F318F803302BB970
:107C5000A0882146FFF764FF20B92060A388013384
:107C6000A380EAE723681EB1998832889142EFD158
:107C70001FB119883A889142EAD19A68C5E9002370
:107C8000064B1B892B810020BDE8F88348F2016078
:107C9000FAE748F20460F7E7D0290020D82900204D
:107CA000F429002008B5074B5888191DFFF738FF45
:107CB00018B1BDE80840FFF7BFBEBDE80840FFF7B8
:107CC0005BBE00BFD82900202DE9F047A24FDFF8A6
:107CD000AC8288B006463B6823B9A048414600F014
:107CE0004CFD38603D6829784B1E052B07D8DFE82E
:107CF00013F020007A007A000C010C01630148F2B5
:107D00000E641422002103A809F09FF941F61D53C7
:107D10009C4208BF00243B6804941A78023A042A63
:107D200000F20282DFE812F0E301EF011102190212
:107D300020022EB18A4B00225A604FF40644E0E73D
:107D40002B79032B1CD8DFE803F014022A35854A6F
:107D50001378022B1AD0137D022B4FF0010317D199
:107D600014214B43D1180020D0544868FFF738FE47
:107D700003E001232B71FFF71FFE002800F0BF80F6
:107D8000774B00225A6048F20D64BAE70023E7E718
:107D9000734A13700023536041F61D54B1E77249D2
:107DA0007248002302222B718A800968012201F0A7
:107DB000D3F8E2E76C4C00262E712068FFF710FE26
:107DC0006B4BDFF8A0C15B882568142253430CEB92
:107DD00003020CF8036051685560A58815810222E2
:107DE0002160A280C9E7B5F814A0AA7DDFF87491DC
:107DF000AEB1022AEB8806D9142101FB0A91DA1CE4
:107E0000088902440A81142202FB0A99C3F57F43C0
:107E1000B9F80A20FD331344A9F80A308DE714237A
:107E200003FB0A9318895C6804EB8004062A69D86E
:107E3000DFE802F0274E36441D5A040041F61D5477
:107E4000AA7DEB88022A06D9142101FB0A91DA1CCB
:107E5000088902440A81142202FB0A99C3F57F4370
:107E6000B9F80A20FD331344A9F80A3049E741481C
:107E7000414900234360AB690360FFF77DFE0028A2
:107E80005BD00223AB75002300930423EA1821463C
:107E9000364800F0C7FF002831D048F20D64CFE724
:107EA0002B69002B14BF03230123AB750023009320
:107EB00005F10C02042304F10801E9E70123AB7585
:107EC0000022EB8800922A699B0004F10C01DFE795
:107ED00003290CBF05230623AB750023009304235D
:107EE00005F10802E118D3E70623AB75224B198888
:107EF000204B5868FFF784FD04460028A0D108B045
:107F0000BDE8F08748F20E649AE7002E7FF415AFC3
:107F10002B79012B34D0022B3FF43EAF002B7FF4A2
:107F2000EEAE02232B710DF10A01EB68039303A857
:107F3000CDE90466FFF720FE10B948F20964E0E6D7
:107F40000498BDF80A108388EB8003882B81FFF723
:107F500057FD044629E000BFF0290020A82A002090
:107F6000D0290020F4290020BC2A00207022002003
:107F7000D8290020B4290020C82A0020E8290020A0
:107F8000DFF8009203AA4B463146A81DFFF746FED4
:107F9000044670B9B9F804100498FFF731FD04469F
:107FA00048F209639C423FF4F7AE002C7FF4A9AE7F
:107FB000A5E7C9E90066F3E7002E7FF4BEAE6C4B7F
:107FC0001A7BBAB11E731A78013A062A3FF697AEA9
:107FD00001A151F822F000BF83800200A9800200B5
:107FE000C7800200CD800200FF7C0200D380020027
:107FF000E58002001A78072AE5D801A151F822F09D
:1080000021800200C77F0200C77F02004780020074
:108010005B8002007F8002007F80020043800200BC
:108020001A89544901321A8100225A801A730A7837
:10803000B2FA82F252099A720A7DB2FA82F25209B7
:10804000DA72012207E04C4958688A884088033276
:1080500002448A8002221A70B5E75C88454A464984
:10806000142505FB04220868546850608888108134
:1080700002200C608880002111740622EBE70722A1
:10808000E9E79A7A32B9DA7A8AB900221A705A8004
:108090005A6081E6374900229A72CA68002AF2D1F2
:1080A000097C0029EFD05A80FFF7FCFD51E7002240
:1080B000DA72304A116A0029E7D192F82420002AA6
:1080C000E3D00122EFE7FFF7B7FC42E7FFF754FCEC
:1080D0003FE75A88274B142101FB02335868FFF70A
:1080E0007FFC36E700225A60FFF766FC31E7012289
:1080F0008DF80C201A89ADF818209A88DB68ADF845
:108100001A20059310E002228DF80C201A89ADF890
:1081100018209A88ADF81A20DA689B7D05929A1F7C
:10812000534253418DF81C3003A8FFF7CFFB0026C4
:10813000414612483E6000F04BFB1148012100F01F
:1081400001FC00287FF4C7ADD9E603228DF80C208E
:10815000DA88ADF818201A89D0E704228DF80C20AF
:10816000DB88ADF81830DFE705238DF80C30DBE74E
:10817000D8290020F4290020BC2A0020A82A0020A9
:10818000B82A0020CC2A00204068FFF79DBD0000DF
:1081900008B50548012100F0BDFB18B9BDE808404D
:1081A000FFF792BD08BD00BFB82A00202DE9F341BA
:1081B0009846374B1B7806460D46002B5CD00029AD
:1081C0005DD009884FF6FF7399425BD06B88002B16
:1081D00058D06B689B0758D14AB92F890DF102011D
:1081E0003846FFF799FB30B102B0BDE8F081138843
:1081F0005788ADF8023001A8FFF73AFC044660B991
:10820000BDF80220234B142101FB023358890338A7
:10821000C01B588148F20760E6E780F80080002321
:108220008375BDF8023083826B68036101211A48AF
:1082300000F07CFB2B882381B8F1030F6B88A380AF
:1082400004BF0423A3754FF0000508BF3368E06046
:1082500008BFA3611148E780658101A900F07DFA9C
:1082600036B1E36833600E4B75601B89B57233819C
:10827000FFF78EFF0020B7E748F20160B4E748F24D
:108280000460B1E748F20360AEE748F20260ABE792
:10829000D0290020F4290020EC290020A82A002061
:1082A000D829002008B5034607480268042A08D0E8
:1082B0000168064A42F82130012100F037FB002016
:1082C00008BD48F20B60FBE7C42A0020C02900204B
:1082D0002DE9F04F89B01422002103A808F0B5FE63
:1082E0007A4B1B7803F0FF0B3BB103A8FFF7EEFAC4
:1082F0000027384609B0BDE8F08F744B181D00F018
:108300002DFB0028F4D1DBF8F83FDFF8E0A15C1C7E
:1083100008BF4FF010234FF0805208BF5B6911690E
:108320005269581C08BF02FB01F3CAF810306849B3
:10833000A3F5405300225046CAF80C3000F040FD2F
:1083400007460028D5D11C2362496348DFF8A09175
:108350008C2200F0A3F90323B8463D4601933C4626
:10836000DAF80C6046443046FFF790FB012862D0F3
:10837000032817D000283DD158494FF0140C0CFBAE
:1083800004FC01EB0C0201F80C0056600CF1100229
:108390000CF1080C0A4430466144FFF78FFB45F0AE
:1083A000020545E03268531C02D04D4B9A4234D14D
:1083B000321D06F58051106801302ED104329142F1
:1083C000F9D1D9F800203AB90222C9F80060A9F819
:1083D00004204FF0010B0BE0142262433F4B0220BC
:1083E000991898543F4A4E60548001340881A4B2D1
:1083F00045F0010508F58058B8F5405FB0D1019B04
:10840000012B98BF0025EDB2022D03D0062D32D0EE
:10841000002D39D148F20A676BE7019B2F495A1E9C
:1084200093B2142262438818019346600320885453
:108430000134A4B2DEE7BBF1000F0DD0274B1422AC
:108440006243991802209854D9F800204A60254ABE
:10845000088154800134A4B200222349C9F8006085
:108460003046FFF72BFBB9F80420022A0CBF042288
:1084700008221543BEE7154A0123137003A8002301
:108480005360FFF723FA34E702A8FFF7F1FAC8B107
:108490000123013D03700A2D09D8DFE805F0060825
:1084A0000608070807080F110F000023037102A92F
:1084B000094800F052F9FFF76BFE1AE70323F5E7CE
:1084C0000223F3E748F2076713E700BFD029002033
:1084D000981703001C2A0020A82A0020F429002055
:1084E000DEC0ADDED8290020C02A00207022002086
:1084F000BC2A002073B50D460446C8B1C1B10DF1C8
:108500000601FFF739FBB0B1BDF806300B486668CD
:10851000142202FB030001210C3000F007FA63680B
:108520002E600C336B600123A372002002B070BD7B
:1085300048F20460FAE748F20960F7E7F4290020FE
:1085400013B50446A8B10DF10601FFF715FB98B16C
:10855000BDF806200B4B142101FB0233DA6872B11F
:10856000A27A62B1DA680020013ADA60A07202B041
:1085700010BD48F20460FAE748F20960F7E748F2F4
:108580000560F4E7F429002002230022FFF70EBE65
:1085900018B103230022FFF709BE48F204607047B8
:1085A000114B1B7813B50446ABB14FF6FF739842DD
:1085B00014D001A8FFF75CFA98B1052303700123DA
:1085C0000371C48001A9094800F0C7F8FFF7E0FD76
:1085D000002002B010BD48F20160FAE748F20360E3
:1085E000F7E748F20760F4E7D0290020A82A002026
:1085F0000F4B1B7807B5A3B101A8FFF739FA98B163
:108600000623037001A90B4800F0A7F80A4B1A785B
:108610000AB101221A73FFF7BBFD002003B05DF819
:1086200004FB48F20160F9E748F20760F6E700BF93
:10863000D0290020A82A0020D829002007B5ADF8AD
:108640000600ADF804100DF1060001A9FFF7E6FAE7
:1086500003B05DF804FB07B51346ADF806000A4603
:1086600000200DF10601FFF7D9FA03B05DF804FB15
:1086700007B51346ADF806000A460DF106000021C5
:10868000FFF7CCFA03B05DF804FB20B119B1036821
:108690000B600020704748F20460704710B561B16C
:1086A000B2FBF3F403FB1424A4B244B9C0E90014F0
:1086B00084608281C381204610BD0E20FCE7092022
:1086C000FAE782B050E8022FC188B2EB324F4FF088
:1086D000000317BF92B241EA014142EA014104E0BE
:1086E0004268B2EB324F08BF012340E80212002A71
:1086F000E8D18DF807309DF80730002B0CBF112012
:10870000002002B0704737B550E8013F9DB2C489E0
:1087100025448489A54228BF2D1B0489A54202BF98
:10872000BFF32F8F002207E0C5EA030540E801549C
:10873000002CE9D14FF001028DF803200193019A3A
:108740000A609DF8031001F0FF0321B1006810FAE0
:1087500082F003B030BD1846FBE70A884B889A4286
:1087600009D150E8012FC2EA024240E80123002B60
:10877000F7D1012070470020704737B550E8023F1D
:108780001FFAA3F5C488A54202BFBFF32F8F0022B2
:108790000DE0C48925448489A54228BF2D1BC3EA66
:1087A000054540E80254002CE8D14FF001028DF855
:1087B00003200193019A0A609DF8031001F0FF0362
:1087C00021B1006800EB124003B030BD1846FBE752
:1087D0000A884B889A4209D150E8022FC2EA224205
:1087E00040E80223002BF7D101207047002070479A
:1087F00001F01F024B090121914000EB830000F0C2
:1088000065B84B0910B501F01F040121A14000EB30
:10881000830000F04FF8E04000F0010010BD01F0CF
:108820001F0301229A404B0900EB8300D14300F063
:1088300065B84B0901F01F0150F82300C84000F053
:10884000010070472DE9F0474F1E7F0980460E4614
:108850000137002558F8254008EB8509E44394FAD0
:10886000A4F4B4FA84F44FEA451A202C06D1013559
:10887000AF42EFD834462046BDE8F0875444A642C4
:10888000F5D921464046FFF7BCFF0028F3D0D9F8C0
:108890000040E44394FAA4F4B4FA84F4E5E710B594
:1088A000034653E8000F0A4643E8002494F0000F03
:1088B000F7D110BD10B5034653E8000F40EA01029E
:1088C00043E8002494F0000FF6D110BD10B5034624
:1088D00053E8002F42EA010043E8000494F0000F3F
:1088E000F6D110BD10B5034653E8000F00EA0102AF
:1088F00043E8002494F0000FF6D110BD10B50346F4
:1089000053E8002F02EA010043E8000494F0000F4E
:10891000F6D110BD10B5034653E8000F00EB01027D
:1089200043E8002494F0000FF6D110BD10B50346C3
:1089300053E8002F02EB010043E8000494F0000F1D
:10894000F6D110BD10B5034653E8002FA2EB01008D
:1089500043E8000494F0000FF6D110BD0121FFF7A9
:10896000A9BF0121FFF7B2BF0021FFF7BBBF10B5C0
:1089700090B1D0E9012301689B1ADBB20A60013B88
:10898000DBB2FF2B026802D10020107110BD11680C
:108990004C1C14600B70F2E70E20F7E737B5054664
:1089A00000240DF107008DF80740FEF717FE2A6836
:1089B0006B68116899420ED9481E106011F8013C8D
:1089C000EC68298A01FB0344AB6811791B1ADBB2FE
:1089D000994238BF13719DF80700FEF723FE204629
:1089E00003B030BD37B5054600230DF107000C4636
:1089F0008DF80730FEF7F2FD2A681368591C1160E4
:108A0000E968641A298AB4FBF1F41C709DF8070028
:108A1000FEF708FE03B030BD826810B504462AB1E7
:108A200043690168006998470023A36010BD0EB434
:108A300003B5039921B104AB01AA019300F076F8C4
:108A400002B05DF804EB03B070470A2938B504465C
:108A50000D4602D10D21FFF7F8FFA3682268591CCB
:108A6000A160D554D4E901329A4204D32046BDE82E
:108A70003840FFF7D1BF38BD2DE9F84F9846DDE902
:108A80000A43154682460F460A464FF00109AA429C
:108A90000FD2C14538BFC14613F0010B01D16CB9EB
:108AA00000240126B8F1010F1BD908F1FF386E43ED
:108AB000F8E709F10109B2FBF5F2E8E79B070ED5EB
:108AC000B8F1000F0CBF30262026A145E9D2013CA9
:108AD00031465046FFF7B9FF002CF6D1E0E72026DB
:108AE000F3E7B7FBF6F39D42E1D9DFF83C80B7FB33
:108AF000F6F3504618F8031006FB1377FFF7A5FFAF
:108B00003346AB42B6FBF5F6F1D2BBF1000F02D013
:108B10000CB1A14501D3BDE8F88F20215046013C9E
:108B2000FFF793FFF4E700BFAC1503002DE9F74F03
:108B3000054617468846002900F03E8118F8011BBB
:108B400049B92B7B002B00F03781284603B0BDE8E4
:108B5000F04FFFF761BF252940F0B780002698F855
:108B600000302D2B424608F1010823D0302B24D0B1
:108B70002B2B25D000242A2B02F1010123D13B68A5
:108B80001A1D1B683A601C440A4613782E2B26D106
:108B900001324FF0000A104610F8011BA1F1300C11
:108BA000BCF1090F1DD80A2303FB0A13A3F1300AF5
:108BB0000246F0E746F00106D1E746F00206CEE7AE
:108BC00046F00406CBE711F8013CA3F13000092878
:108BD000DBD80A2202FB0434303C0A46CBE74FF0D4
:108BE000000A12F8011B01F0FB0068289046F8D03B
:108BF000782909D86F290CD8632962D022D8252971
:108C000063D0582900F0888098F80030002B95D167
:108C100097E770390829F7D801A353F821F000BF6E
:108C2000938D0200098C0200098C0200298D02003C
:108C3000098C0200078D0200098C0200098C0200D9
:108C4000198D0200642901D06929DDD13A68D2F872
:108C50000090111D89EAE9723960A2EBE9724FF0C8
:108C6000010B092A35DCD34538BFD3462CB1B9F105
:108C7000000F01DB720700D5013CB30702D5BAF142
:108C8000000F03D0F00701D44CBB0024B9F1000F52
:108C90002DDAC9F100092D212846FFF7D6FE06F08E
:108CA0000302022A04D1BAF1000F01D11CBB002437
:108CB000CDE9004653460A2249462846FFF7DCFE26
:108CC000A2E73B681A1D19783A602846FFF7BDFEF7
:108CD0009AE70A230BF1010BB2FBF3F2C1E7A345BC
:108CE000D4D220212846013CFFF7AFFECCE7710724
:108CF000D5D52B21D0E7A345DAD230212846013C37
:108D0000FFF7A3FED2E73968CDE900460A1D3A60B5
:108D100053460A220968D0E739680A1D3A60CDE94E
:108D2000004653461022F5E73B681A1D3A6016F0DC
:108D30000106D3F8009024D1B9F1000F03D04846C2
:108D400008F0D8F90646B4421DD809F1FF3919F8E0
:108D5000011F00293FF458AF2846FFF776FEF6E7DB
:108D600028460136FFF771FE19F806100029F7D1E1
:108D7000A642BFF449AF20212846013CFFF765FE1B
:108D8000F6E70026F0E720212846013CFFF75DFECC
:108D9000D9E73B681A1D3A60302128461C68FFF766
:108DA00054FE78212846FFF750FE00220823CDE923
:108DB00000322146102280E703B0BDE8F08F00BFEB
:108DC00013B50B46114680B9104B1148114AC01A11
:108DD0000E23C0080093104B0004104940F001001E
:108DE000FDF705FE0E2002B010BD4BB9074B084839
:108DF0000B4AC01AC0080E2300930004064BECE790
:108E000003601B6802B0BDE810401847E81103007A
:108E100060120300BC15030078170300C11503009E
:108E2000F01503002DE9F743DDF8288088B93E4BA3
:108E30003E483F4AC01AC0080E243E4B009400042E
:108E40003D4940F00100FDF7D2FD204603B0BDE8EA
:108E5000F0834AB9344B3548384AC01AC0080E244A
:108E6000344B00940004EBE7D0F800E0BEF1000FB3
:108E700009D12D4B2D48324AC01AC00808242D4B69
:108E800000940004DCE74BB9274B28482D4AC01A50
:108E9000C0080924274B00940004D1E74568D5F8A1
:108EA0000490B3FBF9F509FB15354DB11E4B1F4876
:108EB000254AC01AC00809241E4B00940004BFE7CD
:108EC0008D0709D0184B1948204AC01AC008102431
:108ED000184B00940004B3E712F0030F09D0124BB3
:108EE00012481B4AC01AC0081024124B00940004F8
:108EF000A6E7C568A9420DD34D1EEC180569AC4222
:108F000008D8CDF82880DEF80C40A44603B0BDE8B0
:108F1000F0436047044B05480E4AC01AC0081024AD
:108F2000044B009400048BE7E81103006012030077
:108F3000BC15030065170300C11503003E160300AE
:108F4000EA150300FD150300441603006E16030026
:108F500086160300A9160300F7B580B92A4B2B48E3
:108F60002B4AC01AC0080E242A4B009400042A4938
:108F700040F00100FDF73BFD204603B0F0BDD0F806
:108F800000C0BCF1000F09D11F4B2048234AC01A72
:108F9000C00808241F4B00940004E8E74AB91A4BA4
:108FA0001A481F4AC01AC00809241A4B009400042A
:108FB000DDE74568D5F800E00EF1FF350D4209D038
:108FC000114B1248174AC01AC0081024114B0094C4
:108FD0000004CCE7C568A9420CD34D1E0EFB025419
:108FE0000569AC4206D8DCF81040A44603B0BDE8E1
:108FF000F0406047044B05480B4AC01AC0081024D3
:10900000044B00940004B2E7E8110300601203006F
:10901000BC15030052170300C1150300EA15030035
:10902000FD150300D0160300F616030029DF704774
:1090300028DF704770B503689E6886B004460D4609
:109040006EB114220021684607F0FFFFA368059364
:10905000237901952BB1012B0DD06846B04706B09E
:1090600070BD01238DF8003023690293E3680393F8
:1090700063690493F1E702238DF80030E3681B0372
:109080000293F5E70846704700207047024B187AB4
:10909000003818BF01207047702B0020034B187A4E
:1090A0000122B0FA80F05A7440097047702B0020FA
:1090B00008B510461A4607F09FFF002008BD0000C3
:1090C00008B514220021044807F0BFFF0348FFF74A
:1090D000F8FA002008BD00BF702B0020602B002094
:1090E00010B5094C094B43602046FFF737FC40B9E7
:1090F00007F00AFD064920741C2306488C22FFF75E
:10910000CDFA002010BD00BF702B00208C1703008B
:10911000D42A0020602B002038B5234D234C2B7A15
:109120003BB923492348FFF728FB206008B9686052
:1091300038BD022324682B72237973B1012B24D00C
:1091400020460321FFF776FF00232B726B6018493E
:109150001848BDE83840FFF73BBBD4E90523D21AD5
:10916000B2F5805FD4E9031028BF4FF48052920813
:10917000012A38BF012219441844FFF757FF50B1A4
:109180001128DDD101232B72D2E7D4E9030318445F
:10919000FFF74EFFF3E72B7C002BC9D1BDE8384029
:1091A000022000F009B800BF702B0020882B00209F
:1091B000842B0020602B002038B5234C237A002B11
:1091C00041D0022B09D1032830D0204B00221B684C
:1091D000E2601A793AB1012A22D0637C7BBBBDE8F8
:1091E0003840FFF799BFD3E905128D1AB5F5805FB6
:1091F00094BF521902F580529A619142EDD1022832
:109200004FF0000308BF19462372104B18BF0D2101
:109210001868FFF70FFF0E490E48FFF7D9FADCE791
:109220001A6901321A615B699A42E7E7E368013320
:10923000082B01D8E360D0E70023E360DFE7BDE857
:10924000384007F051BC38BD702B0020882B00201F
:10925000842B0020602B0020831E012B01D8FFF7F8
:10926000ABBF704700F0FD03012B08D1044B002277
:109270005A74421E504250411874FFF74DBF704758
:10928000702B002010B5064C201DFFF767FB28B996
:10929000637C1BB9BDE81040FFF73EBF10BD00BFA7
:1092A000702B00202DE9F34180460D46104801A99E
:1092B00016461F46FFF727FA0446B0B118220021D0
:1092C000043007F0C2FE2D0B0123237101A90848C9
:1092D000C4F80080A760E5606661FFF73EFAFFF71B
:1092E000D1FF002002B0BDE8F0810420FAE700BF02
:1092F000602B00202DE9F34180460F460F4801A95D
:1093000016461D46FFF7FFF90446A8B118220021B2
:10931000043007F09AFE089BA36001A9C4E9036723
:109320000648C4F800806561FFF717FAFFF7AAFF47
:10933000002002B0BDE8F0810420FAE7602B002095
:109340002DE9F84FB0F806A04579D2F800B09DF8A5
:1093500028900AFB05F5043D88460BEB0301A94262
:1093600003F1040488BFA5EB030BB4FBFAF6074630
:109370000AFB1644C2F800B04EB9AAEB04055D45DD
:1093800028BF5D46BBF1000F04D1BDE8F88F3F68F0
:10939000013EF1E7043408EB06003C442A46B9F1EB
:1093A000000F0DD02146ABEB050B07F025FEDA458B
:1093B0002E443F6855464FF0000428BF5D46E1E764
:1093C00001462046EFE7FFF7D2BAF8B546790146E5
:1093D000721E0546002393422D6803D30024A64243
:1093E00002D8F8BD0133F6E70F682846FFF7FAFA0E
:1093F00001343946F3E72DE9F843068ACD1C0746C8
:10940000FFF7CCFA043E35440446B5FBF6F5F0B15F
:109410004FF48073EDB28380C680013D07608146C2
:109420004FF00008A84512D23846FFF7B7FA0646B3
:1094300048B163790133637108F10108C9F800008C
:1094400007608146EEE72046FFF7BFFF344620461F
:10945000BDE8F88301210430FFF768BA10B5012197
:1094600004460430FFF76EFAC0B220B92046BDE8CA
:109470001040FFF7AABF10BD1FB503920022009253
:1094800003AAFFF75DFF05B05DF804FB1FB503926B
:109490000122009203AAFFF753FF05B05DF804FB19
:1094A00041DF7047064B10B500241C70054B1C6053
:1094B000BFF35F8F0449054800F03BF8204610BD1C
:1094C000942B0020982B0020C41703008C2B002025
:1094D00007B500230DF107008DF80730FEF77EF881
:1094E000F1EE103A23F09F03E1EE103ABFF35F8FE5
:1094F0000A4B4022C3F884219DF80700FEF792F83A
:1095000007F002FB20B103B05DF804EBFFF7C8BF22
:1095100020BF40BF20BF03B05DF804FB00E100E0C6
:10952000836800225A60C3E904229A60DA601A60F4
:1095300070470B684A684360934208BF002301608C
:1095400008BF43607047436843B10268916852683E
:109550000B449342436004BF00234360704770B5DF
:10956000446806460D46206818B1B36829469847F6
:1095700018B923682B60256070BD2468F3E7436841
:10958000186808B102681A60704743681868704725
:109590004368186800B97047884203D102681A60AE
:1095A0000120704703460068F4E7000010B50D493C
:1095B000A1F59472914201D800200FE08C1AE30FBC
:1095C00003EBE4035B1002EBC30452F83330834235
:1095D00005D802D204F10802ECE7606810BD21460C
:1095E000E8E700BFD01C030008B5FFF7DFFF024B20
:1095F000002808BF184608BD931B03004FF0805396
:10960000D3F83001421C04BF4FF0704393F8E00FD1
:10961000831F5842584170474FF0704393F8E02F32
:10962000062A09D1D3F8E83FC3F30313033B032B06
:1096300002D8024AD05C704700207047D81C030053
:1096400008B5FFF7DBFF40B14FF080538F4AD3F8E6
:109650002433C3F30423C2F84035FFF7DDFF10B114
:109660008B4B8C4A5A67FFF7C9FF48B14FF08053C4
:109670004FF08042D3F84432C3F34233C2F83C3552
:10968000FFF7CAFF30B1844AD2F8FC3023F0807370
:10969000C2F8FC30FFF7B2FF40B14FF08043002228
:1096A000C3F80C21C3F81021C3F83825FFF7B4FF25
:1096B00020B14FF080430322C3F8A025FFF7ACFF91
:1096C00060B1764B0522C3F810260122C3F8882624
:1096D0000022C3F818263F22C3F814264FF0805307
:1096E000D3F83021511C09BF4FF07043D3F8343107
:1096F00093F8E02FD3F8E83F08BFC3F30313062A1B
:109700004DD1033B032B03D8654AD35C002B46D0D5
:109710004FF08052634BD2F80414C3F82015D2F8EE
:109720000814C3F82415D2F80C14C3F82815D2F87D
:109730001014C3F82C15D2F81414C3F83015D2F84D
:109740001814C3F83415D2F81C14C3F84015D2F815
:109750002014C3F84415D2F82414C3F84815D2F8DD
:109760002814C3F84C15D2F82C14C3F85015D2F8AD
:109770003014C3F85415D2F83414C3F86015D2F875
:109780003814C3F86415D2F83C14C3F86815D2F83D
:109790004014C3F86C15D2F84424C3F87025FFF7C1
:1097A0002DFF48B14FF080534FF08042D3F858322C
:1097B00003F04F03C2F8E43EFFF720FF48B14FF03B
:1097C0008043D3F80024D20744BF6FF00102C3F8EE
:1097D00000244FF08053D3F83021062A0ED1D3F85D
:1097E0003431033B032B02D82F4AD35C33B12F4AC9
:1097F000D2F83C3743F48063C2F83C37264AD2F8AB
:10980000883043F47003C2F88830BFF34F8FBFF342
:109810006F8F4FF01023D3F80022002A03DBD3F818
:109820000432002B2EDA224B0122C3F80425D3F890
:109830000024002AFBD04FF010221521C2F800129C
:10984000D3F80024002AFBD04FF010231522C3F8D0
:109850000422174BD3F80024002AFBD00022C3F8BF
:109860000425D3F80024002AFBD0BFF34F8F0A4908
:10987000104BCA6802F4E0621343CB60BFF34F8F12
:1098800000BFFDE70C4B0D4A1A6008BD00300140D7
:1098900000C007400DF0ADBA00ED00E00050004000
:1098A000D01C030000C00040D41C03000010004086
:1098B00000E001400400FA05942200200090D0034B
:1098C000054A4FF0A043105CD3F8043523FA00F0AA
:1098D00000F00100704700BFE01C0300044B1A5C5D
:1098E000012393404FF0A042C2F80835704700BFF3
:1098F000E01C0300044B1A5C012393404FF0A0428C
:10990000C2F80C35704700BFE01C030008B500200A
:10991000FFF7F0FF0120FFF7EDFF0220FFF7EAFF5E
:10992000BDE808400320FFF7E5BF08B50020FFF7BA
:10993000D5FF0120FFF7D2FF0220FFF7CFFFBDE8E0
:1099400008400320FFF7CABF074A4FF0A041105C50
:10995000D1F804350122824022EA03001340C1F805
:109960000805C1F80C357047E01C0300054A4FF0AC
:10997000A043105CD3F8103523FA00F0C04300F088
:1099800001007047DC1C03000D2809D00E2809D007
:109990000F2809D010280CBF03204FF0FF3070476C
:1099A000002070470120704702207047C20708B5A9
:1099B00001460CD54FF0A0430322C3F84427C3F857
:1099C0004827C3F84C27C3F85027FFF79FFF8B07A2
:1099D0000AD54FF0A0430C22C3F83427C3F8382728
:1099E000C3F83C27C3F8402708BD00F1804000239E
:1099F00082B0036003680193019B02B070470000CE
:109A0000044A137923B901211060918018467047E8
:109A1000852070479C2B0020074B1A68D20704D47E
:109A2000C02283F8002301221A604FF080430122F4
:109A3000C3F81825704700BF00E100E04FF08042F6
:109A400008B50223C2F808334FF48270FFF7CDFF48
:109A50000123D360D2F81834DB03FBD408BD08B56A
:109A60004FF48070FFF7C1FF4FF080430122C3F82D
:109A700004231A6008BD00004FF08042012108B5A0
:109A80004FF48070C2F80813FFF7AFFF5160D2F8AF
:109A90000C3403F00113B3F1011FF8D0014B002285
:109AA0005A7108BD9C2B00204FF0804110B5D1F8B1
:109AB000003163B14FF48070FFF797FF0D4B587979
:109AC0000122C1F8082310B95A711B6898474FF05A
:109AD0008042D2F8043163B14FF48270FFF785FF02
:109AE0000223C2F80833034BBDE810401B68012075
:109AF000184710BD9C2B002000F1804000F5C040AD
:109B0000002382B0036003680193019B02B0704799
:109B1000800000F1A040D0F8002722F44032C0F8C5
:109B20000027D0F8003743EA0141C0F8001770471A
:109B3000054B4FF0FF32072843F8202084BFC018A0
:109B400080F84820704700BFA42B002010B51849AA
:109B500091F8583053BB4FF0FF3222FA03F0C007A0
:109B600048BFC81803F1010348BF80F83020202BFC
:109B7000F3D10024E0B20134FFF7DAFF0C2CF9D165
:109B80000C4B0022C0204A6583F806034020186071
:109B90004FF4BE70FFF7B0FF074B4FF00040C3F823
:109BA0000403012381F85830104610BD0820FCE75B
:109BB000A42B002000E100E000600040034B93F87C
:109BC0005800003818BF0120704700BFA42B0020A8
:109BD000F0B5394E331893F93030002B69DA8D78AF
:109BE000C5F34005002D0BBF082300230C240824D7
:109BF000A34201D10420F0BD56F82370013743D1B0
:109C000037185CB246F8232087F8304015B9F218AF
:109C100082F848008A78550716D4D70736D58200CF
:109C200002F1A042D2F8005725F00205C2F8005711
:109C3000224FC50800F0070C012202FA0CF217F8B7
:109C400005C042EA0C027A558A780D7812F00202B9
:109C500025D09B0003F1804303F5C0430002D3F8F5
:109C6000102522F4473222F44072C3F810252D0447
:109C7000D3F8102500F4F85005F44035284310437C
:109C8000C3F810050020B6E70133B1E74D7800F5C1
:109C9000E0724FF0A047AD0047F82250C8E7083CFB
:109CA00046FA84F494F8500040EA851584F8505040
:109CB000E8E708209FE700BFA42B0020F82B002036
:109CC00038B5204C251895F93020072A18DD083AB8
:109CD00044FA82F494F850309B09032B0BD14FF0D7
:109CE000A043D3F81015C14001F001010231BDE8D5
:109CF0003840FFF70DBF012B0CBF02210321F6E70F
:109D0000D3B2072B1DD8930003F1804303F5C04362
:109D1000D3F8100540F00100C3F8100502F140002F
:109D200040B2800080B2FFF7E7FE51B195F93030C4
:109D300054F823302BB1012303FA02F2024BC3F88B
:109D4000042338BDA42B0020006000404FF0A04346
:109D5000D3F8103523FA00F000F00100704700003E
:109D60002DE9F74F00244E4D01944FF480720121EC
:109D700002F1804303F5C04390B21B68012B06D16A
:109D8000D5F804330B4202D0FFF7B6FE0C43043281
:109D9000B2F5907F4FEA4101EAD1414BD3F87C31D3
:109DA000012B0CD14FF4BE70FFF7A6FE4FF0A0437D
:109DB00044F00044D3F820250192C3F82025E3B2F3
:109DC000D3B1384F00250126344210D0AB0003F147
:109DD000804303F5C043D3F81005D3F8101557F8A6
:109DE000253023B1C1F30141C0F304209847013568
:109DF000082D4FEA4606E7D1002C48DA294D4FF0EE
:109E0000A048294E4FF00009012716F9013B5A1CC2
:109E100031D0C3F3C20202A90A44DCB212F8042C06
:109E200003F03F0A03F0070307FA03F31A4222D0B4
:109E30000AF5E073504658F82330C3F3014BBBF1E9
:109E4000020F0CBF03210221FFF762FE07FA0AF39B
:109E5000C8F8203505EB0A0393F9303055F8233064
:109E60004BB1A109032904D0BBF1020F12D1012982
:109E700001D15046984709F10109B9F1040FC4D145
:109E8000D8F820350193C8F82035002BB9D103B09C
:109E9000BDE8F08FBBF1030FEDD10229E8E700BF69
:109EA00000600040A42B0020F42B0020014B1B6815
:109EB000184700BF002C002042DF704743DF704787
:109EC00038B5074C051E04F1080318BF1C4623686B
:109ED0002BB11A6822605B6828469847F7E738BDBF
:109EE000102C002020B9054B01225A70FFF7E8BF63
:109EF000012802D1014A9070F8E77047082C002031
:109F000020B9034B01225A70FFF7DABF704700BF38
:109F1000082C002038B50E4C2378B3B90D48636087
:109F2000A3602361E360FFF76BFD054606F0ECFDDF
:109F300008B9FFF771FD01232370074BD3F80034F4
:109F40000BB10123A370284638BD8525F5E700BF76
:109F5000082C0020E59E02000000014037B50D4CA2
:109F600000230DF107008DF80730FDF737FBE3689C
:109F7000013BE360E36833B9074BD3F8005415B9EC
:109F8000FFF75CFDA5709DF80700FDF74BFB03B0E4
:109F900030BD00BF082C002000000140012813B58F
:109FA0000CD0032820D038B9134B0122C3F88020ED
:109FB000BFF34F8FBFF36F8F02B010BD0F4C002364
:109FC0000DF107008DF80730FDF708FB23780BB97A
:109FD000FFF7A0FFE3689DF807000133E36001236A
:109FE000A370FDF71FFBE7E7FFF716FD02B0BDE822
:109FF0001040FFF7B3BF00BF00E100E0082C0020D5
:10A0000037B51B4C6378054603F0FF029BB110B1D6
:10A0100043680020984700230DF107008DF80730B2
:10A02000FDF7DCFA63689DF8070001336360FDF714
:10A03000F9FA03B030BD0DF107008DF80720FDF7E8
:10A04000CDFA25B1A268134653B92A60A5606368AA
:10A05000002BE7D106F058FD30B1FFF72DFFE1E707
:10A060009D42F4D01B68EFE7FFF7F9FCDAE700BF89
:10A07000082C002073B50F4C00230DF107008DF85C
:10A080000730FDF7ABFA6368013B6360666836B979
:10A0900006F03AFD054640B1FFF710FF66709DF8E7
:10A0A0000700FDF7BFFA02B070BDFFF7E5FC657071
:10A0B000F5E700BF082C00200023435082B043582E
:10A0C0000193019B02B070478B6A4A6B9A4210B5AC
:10A0D0004FF0010305D2496A8A5CC0F81C251A4674
:10A0E00004E091F82C201AB1C3610022104610BD83
:10A0F0000C6A640603D5C36181F82D30F6E743612D
:10A10000EDE770B5D0F8046105460C4626B14FF472
:10A110008271FFF7D1FF012694F82F2022B34FF46C
:10A1200092712846FFF7C8FF4FF48E71FFF7C4FF06
:10A130004FF48471FFF7C0FF002E69D094F82F20F0
:10A14000002384F82D3092BBA36A616B99421CBF37
:10A150001646052386F001061CBFC5F80025C5F884
:10A16000003584F82F6023E0D5F824314BB14FF44B
:10A1700092712846FFF7A0FF01236B6184F82F300E
:10A18000DAE7D5F81C31ABB14FF48E712846FFF7F2
:10A1900093FF636B01336363D5F8243113B14FF43C
:10A1A0009271E7E72146FFF78FFF0028C4D1002214
:10A1B000104670BDD5F80831002BBDD04FF4847126
:10A1C0002846FFF779FFD5F82431002BE7D1636BE0
:10A1D000A16A8B42B0D2616AD5F81805C854636B86
:10A1E000A16A0133481E8342636308D1206A400696
:10A1F00010D40223C5F8003201232B629CE78B4266
:10A20000FAD1236A5B0697D5022384F82D30CFE775
:10A210000122CDE78B42EFD1F6E7000037B5314B95
:10A2200001930D464FF48271FFF746FF4FF4927190
:10A23000FFF742FF4FF48E71FFF73EFF4FF484713A
:10A24000FFF73AFF0023C0F800326B6385F82F3028
:10A250000123036295F82D209A4218BF8360294696
:10A260000446FFF731FF2B6883B140F28623AB60D1
:10A27000AB68C4F80433002003B030BD2946204643
:10A28000FFF73FFF28B1019B013B0193019B002B8E
:10A29000F4DC95F82F0050B9019B002BECDC002377
:10A2A000C4F800350523C4F800350320E4E7D4F8EA
:10A2B000C434C4F8C43493B113F0010F14BF4FF485
:10A2C0000240032048F2012213F0020F18BF10468B
:10A2D00013F0040F48F2022318BF1846DCE70320EE
:10A2E000DAE700BFA086010037B5344B01930D4675
:10A2F0004FF48271FFF7E0FE4FF49271FFF7DCFE3E
:10A300004FF48E71FFF7D8FE4FF48471FFF7D4FE3F
:10A3100000236B6385F82F30AB6A012B044617D1FD
:10A320002B6A5B0614D40223C4F800320123236293
:10A3300095F82D20022A18BF23602B6893B140F2B4
:10A340008623AB60AB68C4F80433002003B030BD93
:10A350000123E9E729462046FFF7D3FE28B1019BF8
:10A36000013B0193019B002BF4DC95F82F0050B9C1
:10A37000019B002BEADC0023C4F800350523C4F858
:10A3800000350320E2E7D4F8C434C4F8C43493B1F0
:10A3900013F0010F14BF4FF40240032048F20122D2
:10A3A00013F0020F18BF104613F0040F48F20223F7
:10A3B00018BF1846DCE70320DAE700BFA0860100DB
:10A3C000F0B587B007460C46FFF79BFE002846D144
:10A3D00094F82FC0D4F820E0BCF1000F1FD1237BEC
:10A3E0009A1E012A1BD8616AA269914217D1E269BB
:10A3F0006262CEF3401E6269A262032B84F82CE0F5
:10A4000084F82DC02146384604D107B0BDE8F0409D
:10A41000FFF704BF07B0BDE8F040FFF765BF04F1E8
:10A420000C060FCE01AD0FC533682B60BCF1000FD9
:10A4300020D0D7F8C434C7F8C434990711D5012304
:10A440008DF8003000231EF0040F84F8303002D065
:10A45000BCF1000F03D0D4E900316846984707B03B
:10A46000F0BD5A0701D50223EAE7DB074CBF0323FF
:10A470000423E5E78DF800C0E4E700000149024845
:10A48000FFF79EBF1C2C00200030004002494FF017
:10A490004020FFF795BF00BF582C0020C02910B501
:10A4A00025D0B9B180290AD14378047882781B027B
:10A4B00043EA044313430F4A0330C2F89835437804
:10A4C00002781B0243EA024382781343094A0330AD
:10A4D000C2F894350368074A1BBAC2F89035D2F81F
:10A4E000A03523F0C0031943C2F8A01510BD4021C8
:10A4F000E5E700BF00500040044B0D22C3F80424E0
:10A5000001229A60024AC3F80423704700500040B9
:10A5100082000800034BD3F83C0410F0030018BF7E
:10A520000120704700500040F0B5B0F5A07FA5B005
:10A5300072D1FFF7EFFF04463B48002C70D18368CF
:10A540000133072B836067D904230093CDE90144CD
:10A55000364D039400F00AFB354B6C724FF4805279
:10A56000C3F80825D3F80825D3F89005D3F8A0152B
:10A5700011F0C0011FFA82FC50D08029D3F8944515
:10A5800001BFD3F898358DF812301A0C8DF81020D1
:10A5900009BF1A0A04AA8DF811200DF11302230C29
:10A5A0001370230A53709470D31C020E1A70020C9D
:10A5B0001F4C5A70020AD8709A700023D4F8A47500
:10A5C000D4F80463C4F8FC3FD4F8FC3F0123C4F87A
:10A5D000FC3F04A8C4F808C5FFF760FFD4F8A43511
:10A5E00007F0600723F060033B43C4F8A43503235E
:10A5F000C4F80C35D4F8A03523F01F0343F004034E
:10A60000C4F8A0354FF48F63C4F80463C4F808336A
:10A610006B680BB16846984725B0F0BD04ABC4E742
:10A6200000238360F8E700BF98220020942C0020CC
:10A63000005000400288084B4168C3F81015C2F36F
:10A640000802C3F81425054A126802F48C62C3F8A4
:10A6500004230122DA61704700500040942C00204E
:10A660000268CAB10D4B4068C3F81005C2F3080078
:10A67000C3F81405D20040F6F8701040084AC3F839
:10A680001C05C3F80C15126802F01802C3F8042365
:10A690000122DA6000207047092070470050004016
:10A6A000942C002000F1804000F5A04001230360BD
:10A6B0007047000029280D4B11D1D3F8202412F047
:10A6C000010F4FF0010214BF9A625A624FF4805298
:10A6D000C3F808254FF48F62C3F80823704700F1D0
:10A6E000804000F5A04001220260EFE700500040EA
:10A6F00008B50378012B0FD0022B1AD053B942684A
:10A70000B2F5803F21D812494FF6FF70824294BFC4
:10A71000CA60C860002008BD0179032915D80D4A18
:10A72000D2F8A43523F0600343EA4113C2F8A435FC
:10A73000F0E7037A4068043BDBB2062B96BF064A7B
:10A740004021D15CFFF7AAFEE4E70720E3E700BF62
:10A75000942C0020005000400F1D03000A2970B502
:10A76000024630D84FF49263CB40DB4313F0010034
:10A7700029D14FF080540429D4F85054D4F85434DB
:10A78000D4F8584415704FEA15264FEA15459570D0
:10A79000DDB25670D57001D1002070BD1E0A167151
:10A7A0000A294FEA13464FEA13635671937105D194
:10A7B000230AD471240C13725472EEE7882DEBD166
:10A7C0009923D370E9E70920E7E700002DE9FF416D
:10A7D000244D2C7A002C42D103C8234A85E803007B
:10A7E0000323C2F80C35D2F8A03523F01F0343F041
:10A7F0000403C2F8A0351D4B20224FF0C008C3F857
:10A80000802183F805831A60194F1A4B1A4A02A94E
:10A810003846CDE9023400F033F90446D8B93B6834
:10A82000D3F8102501264FF4C861D2B2334621FA7D
:10A8300002F200960146384600F0C1F9072102A84D
:10A84000FFF78CFF4146044602A8FFF727FE4FF4AE
:10A8500080532E72EB60204604B0BDE8F0810824DE
:10A86000F9E700BF942C00200050004000E100E018
:10A87000982200200400000629A50200034AD2F80D
:10A880009C3523F00103C2F89C357047005000400E
:10A89000034AD2F89C3543F00103C2F89C35704757
:10A8A000005000407FB5734BD3F80421EAB1D3F8D0
:10A8B0000423910719D50022C3F80421BFF34F8F59
:10A8C0006D4C637A03F0FF067BB96C4D284600F0AF
:10A8D00059F9284600F03CF90123637202230093E2
:10A8E0006368AE600BB168469847624BD3F8182195
:10A8F000A2B3D3F80423520630D50021C3F81811AF
:10A90000BFF34F8F402201910092D3F8102503929C
:10A91000D3F82425C2F30B02103AC2F3CC02029200
:10A92000D3F828217AB1D3F8042356050BD5D3F8F0
:10A930000C2402F00D020192C3F82811BFF34F8FCF
:10A940000D22C3F80C244C4B5B680BB1684698474A
:10A95000484B0022C3F80C21BFF34F8F454BD3F86F
:10A960001021AAB1D3F80423D50611D50022C3F8CB
:10A970001021BFF34F8FCDE90122039210220092E4
:10A980001822C3F808233C4B5B680BB16846984714
:10A99000384BD3F84C215AB3D3F80423140327D5EA
:10A9A0000022C3F84C21BFF34F8FC3F81821BFF327
:10A9B0004F8FC3F82821BFF34F8FC3F80C21BFF38B
:10A9C0004F8FC3F81021BFF34F8F2B498889C3F8ED
:10A9D00008050D20C3F80C04C3F804044FF4002349
:10A9E00000934B680392CDE901220BB1684698476A
:10A9F000204BD3F81C21F2B1D3F8042310061AD54A
:10AA00000022D3F80414C3F81C21BFF34F8FCDE903
:10AA100001220392C9074FF08002009207D501225C
:10AA2000C3F80424144B5B680BB168469847114B7C
:10AA30000D22C3F804240F4BD3F80C21BAB1D3F87C
:10AA40000423120713D50022C3F80C21BFF34F8F44
:10AA5000094A52685AB108210091D3F810150291A1
:10AA6000D3F81C35C3F3C80301936846904704B07C
:10AA700070BD00BF00500040942C002098220020A0
:10AA8000F7B506792F4D0C237343EF183C7A002C51
:10AA900055D1EA504B687B60477903682246A4464B
:10AAA000D4B2A7423CD8CA7843F307345201002CF1
:10AAB000C3F30733D2B23DDB234F07EB040C8CF812
:10AAC00000230122640903F01F0302FA03F347F88D
:10AAD000243003684A78D3F8040502F0030220F01A
:10AAE00003000243C3F80425D3F808058A7820F050
:10AAF000030002F003020243C3F80825D3F810054F
:10AB00000A7820F00F0102F00F020A43C3F8102563
:10AB10000C2303FB065501232B72002003B0F0BD6C
:10AB2000940004F5A074013243F804C01C59019448
:10AB3000019CB5E7054C03F00F03E254C9E7082078
:10AB4000ECE700BFA42C002000E100E014ED00E0E1
:10AB5000036801221A600279034B0C2101FB0233C6
:10AB600002221A72704700BFA42C00200368012241
:10AB70001A610179024B0C2000FB01331A727047F5
:10AB8000A42C002003680122DA60704737B54FF427
:10AB9000803400688C407BB18B0003F5A0730025E6
:10ABA000C550C3580193019BC0F8044301F5A87137
:10ABB00040F8212003B030BDC0F80843F6E770B478
:10ABC000046840F20116D4F800528E4025EA0605CA
:10ABD000C4F80052D4F800522B43C4F800329DF858
:10ABE0000C3070BCFFF7D2BF2DE9F341104C114F70
:10ABF000114E00254FF48038236883B1D7F8043311
:10AC000008FA05F21A420AD0002323602368019350
:10AC100004F5A040019B80B2D6E900319847013588
:10AC2000062D04F10404E7D102B0BDE8F08100BFB5
:10AC300040B1014000B00140A42C00200220FEF7EA
:10AC400083BE00002DE9F04780460D46FEF79CFECE
:10AC50000328044610D8012D10D0022D30D05DB944
:10AC60001A48FCF7E6FB1A4B04EB440213449D78A8
:10AC7000184B1B5DAB4219D0BDE8F087144E00EBBA
:10AC80004003F218F55C5378470053B1DFF84C905D
:10AC90000E484A464FF48041FCF7B3FB08B989F8E7
:10ACA000008027443E440B4BB2781A55002DE3D068
:10ACB000094B1B68002BDFD02846BDE8F04718473A
:10ACC00000EB4004024804446578EFE7D82C0020EC
:10ACD000182D0020312D00202C2D0020B02C00201C
:10ACE00000780221FFF7AEBF08B5094B1B7853B1BE
:10ACF0000020FEF7FFFD0120FEF7FCFDBDE8084047
:10AD00000320FEF7F7BDBDE80840FEF7FFBD00BF1A
:10AD1000B12C0020F8B57A4C237805461BB10023EE
:10AD20002370FFF7E1FF172D00F28780DFE805F0C1
:10AD30000C1717425364757F878C878C9499999967
:10AD40009999C3C8D0D8E3E3FFF7CEFF6D48FCF76D
:10AD500070FB6D4B002204461A702046F8BD00209F
:10AD6000FEF7AEFDF0B10020FEF7C4FD022D0CBFD2
:10AD70004FF4E1644FF47A64634B1D7000254FF487
:10AD800000464FF47A7029464FF4FA620023E4FB40
:10AD9000060106F035F82A460146BDE8F840594854
:10ADA000FCF72FBBFEF79AFD022D0CBFC8244FF411
:10ADB000C874E1E70020FEF783FD40B10020FEF7F4
:10ADC00099FD4FF44874504B03221A70D6E7FEF7F2
:10ADD00085FDC824F7E70020FEF772FD38B100209A
:10ADE000FEF788FD4FF47A64474B0422EDE7FEF747
:10ADF00075FD4FF4C874F7E70020FEF761FD48B118
:10AE00000020FEF777FD404B05221A7040F6CD4139
:10AE10000022C2E7FEF762FDF5E70020FEF794FD91
:10AE2000394B06221A70002240F26661B5E7002015
:10AE3000FEF754FD344B07221A7000248DE70120E1
:10AE40002070FEF781FDEEE701202070FEF77CFD0B
:10AE500000224FF40051A0E7FEF767FD2A4B0C22B9
:10AE6000EAE72A482A4EFCF7E4FAD5F11105044630
:10AE70001CD0D8B9012D13D0C820454321464FF42A
:10AE800000474FF47A704FF4FA620023C5FB0701C4
:10AE900005F0B6FF224601461C48FCF7B2FA04460C
:10AEA0000220FEF71BFD0123337056E70220FEF758
:10AEB00021FD0023F8E7FFF717FF134B1222BBE732
:10AEC000FFF712FF0020FEF709FD0F4B1322B3E737
:10AED000FFF70AFF0120FEF701FD0B4B1422ABE741
:10AEE000FFF702FF0020FEF7F9FC0120FEF7F6FC59
:10AEF000054B1522A0E7FEF718FD034B1D709CE7DC
:10AF0000282D0020F82C0020302D0020B82C002007
:10AF1000B12C0020044B1B68DB0703D5034B1878CA
:10AF2000FFF7F8BE704700BF242D0020302D002011
:10AF3000044B1B6813F0010301D0FFF7EBBE18466A
:10AF4000704700BF242D002038B51C4B18601C4BE7
:10AF500010F00204054619601AD01A4B1A480E2246
:10AF60001A700F22DA7010229A7111225A7204217B
:10AF700040F23332FBF7B6FF044648B9FCF70AF853
:10AF8000044628B90146114A1148FCF72FFA044635
:10AF9000EB0711D50120FEF709FD6CB921460D4ADA
:10AFA0000D48FCF723FA044630B9BDE838400B4A97
:10AFB0000B480121FCF71ABA204638BD242D002089
:10AFC0002C2D0020182D00201C1D0300E1AC0200D8
:10AFD000401D030015AF0200441D03003DAC0200FC
:10AFE0003C1D0300032811D8012A0AD101290FD1E1
:10AFF00000F10E02D2B20D4B00EB40001A540020BB
:10B0000070470129F7D0022904D049B107207047C1
:10B010000022F8E7054B00EB400018444270EEE7D1
:10B02000024B00EB400018448270E8E7182D002026
:10B0300008B5012202210020FFF7D4FF08B107283C
:10B0400010D1072202210120FFF7CCFF08B1072809
:10B0500008D100210A220846FFF7C4FF10B10728D3
:10B0600008BF002008BD00000388102B10B502D0D7
:10B07000112B1ED010BD1A4C2168B1B9012208460F
:10B08000FFF7B0FF08B1072824D1072202210120D1
:10B09000FFF7A8FF08B107281CD1042202210020D5
:10B0A000FFF7A0FF08B1072814D1236801332360FC
:10B0B000E0E70B4A1368013B1360002BDAD1FFF77E
:10B0C000B7FF0028D6D0074B1B68002BD2D0BDE8B5
:10B0D00010401847034B1B68002BE6D09847E4E765
:10B0E0003C2D0020382D00206DDF704779DF704740
:10B0F0007DDF704764DF70472DE9F04F85B0002594
:10B100000E9CBDF83CB0B4F800A0019107469046F3
:10B110001E46A9463A884A450DDC45B12388013BC5
:10B12000A3EB0A039BB2FF2B3AD806F80A300020A3
:10B1300005B0BDE8F08F7A6852F82900039000222C
:10B140000DF10B0103A8FFF7D5FF0028F0D19DF802
:10B150000B20424521D12288002D14BF002002205F
:10B1600002EB0801014459451ADC3DB9013292B2A3
:10B17000019B2280B35422880132228022880DF163
:10B180000B01324403A8FFF7B5FF0028D0D1218876
:10B190009DF80B200A442280012509F10109B9E735
:10B1A0000C20C5E72DE9F341089FBDF82480154622
:10B1B000CDE90078022204461E46FFF79DFF50B9F4
:10B1C0003346102229462046CDE9087802B0BDE872
:10B1D000F041FFF791BF02B0BDE8F0812DE9F04FDB
:10B1E00000231788138090F82D3085B006460D4651
:10B1F00014465BB3082F01D80C2028E102A8FFF702
:10B2000073FF002840F023812388DDF8091008220D
:10B21000EA54238801339BB21B222380EA542388FB
:10B2200001339BB2EA182380E950BDF80D309380BA
:10B2300023889DF8082006339BB212F0FE0218BF47
:10B2400001222380EA54238801332380B378FBB1A1
:10B2500023880433BB42CFD802A8FFF747FF00285A
:10B2600040F0F58023880322EA54238801339BB2FF
:10B2700019222380EA542388BDF8082001339BB2A9
:10B28000E9182380EA54120A4A7023880233238083
:10B29000F2789AB12388D91CB942ADD80221E95479
:10B2A000238801339BB201212380E95423880B4476
:10B2B0009BB22380EA5423880B4423807268AAB18E
:10B2C0002388D91CB94297D8022192F90020E95469
:10B2D000238801339BB20A212380E9542388013358
:10B2E0009BB22380EA542388013323803389002BC7
:10B2F00040F0A180338A5BB1CDE900472B4607229D
:10B30000032106F11000FFF74DFF002840F09F8059
:10B31000338B5BB1CDE900472B461522142106F192
:10B320001800FFF73FFF002840F09180326A002AA2
:10B3300040F09080D6F82480B8F1000F30D0B8F8F3
:10B3400004302188981C8A1C0244BA423FF654AF4C
:10B35000FE283FF651AF03336B54238801339BB271
:10B36000FF222380EA54238801339BB22380B8F85C
:10B370000020EA54E918120A4A702088023080B28C
:10B380002080B8F804205AB1D8F8081000296BD0F2
:10B39000284405F031FE2388B8F8042013442380A4
:10B3A00096F82C30002B40F09880307800284ED052
:10B3B0003388012B58D0228802F1020CBC453FF69D
:10B3C0001BAF012805D17378023313449F42FFF469
:10B3D00013AF023FBF1ABFB202A905EB0C00ADF8D4
:10B3E0000870FFF785FE90BB3178BDF80830022960
:10B3F00000F0B98072789A4202D39F4280F0B18007
:10B40000012940F0B280974293B2C0F0AE80ADF80F
:10B4100008300821BDF80830FE2B3FF6EDAE22883B
:10B420000133AB542288013292B22280A95422887F
:10B43000134423800BE0CDE900472B46062202216E
:10B4400006F10800FFF7AEFE00283FF453AF05B049
:10B45000BDE8F08FB4F800C00CF10603BB423FF624
:10B46000CBAE1188052901D80720F0E76FF4486EAC
:10B4700001EB0E039BB24FF27D3E7345F4D9538826
:10B48000052BF1D96FF44860181880B27045EBD9DC
:10B490004FF6FF70814201D09942E5D8052305F8A7
:10B4A0000C30238801339BB212212380E954238876
:10B4B00001339BB223801188E954E818090A4170CE
:10B4C000238802339BB223805288EA54E918120A77
:10B4D0004A702388023323802CE7B36A002BC3D041
:10B4E0004FF000084FF00C0A4FF0160BB16A5FFAEC
:10B4F00088F20AFB02F201EB0209B9F80430981C49
:10B50000FE283FF679AE208803332B54238801337D
:10B510009BB2238005F803B0238801339BB22380BC
:10B520008A5AEA54E918120A4A702088023080B216
:10B530002080B9F804205AB1D9F80810002993D016
:10B54000284405F059FD2388B9F8042013442380CA
:10B5500096F82C2008F101085FFA88F39A42C5D8C2
:10B5600023E7092156E79F42FBD2ADF8087050E768
:10B5700030B5C8B1F2B10024651C8D4206DA1588D9
:10B58000A54212D805196D789D420ED1A14211D95C
:10B59000005D48B1013880B230B10234A3B210FA74
:10B5A00084F4A14206DB138030BD055D01352C44D7
:10B5B000A4B2E1E70020F7E713B513460022ADF887
:10B5C00006200DF106020446FFF7D2FF10B1BDF8C8
:10B5D0000630E01802B010BD72DF704773DF7047AD
:10B5E00038B5012204460D46B0F81414D0F8100402
:10B5F000FFF7E2FF00B1057004F13C0204F582613F
:10B6000004F15400BDE83840FFF7E6BF80F8301081
:10B610007047F8B504460F46002973D0002871D052
:10B6200091F87A301BB191F89830002B6CD1D7F893
:10B63000A030042B68D0D7F89C30042B64D04FF096
:10B64000000C84F802C007F178060FCE251D0FC547
:10B650000FCE0FC596E8070085E8070084F830C0D4
:10B66000D7F8A4306363D7F8A830A36304F58262E7
:10B670004FF6FF73C4F826C4A4F82434C4F8202479
:10B68000C4F829C422780AB984F8543094F82430D4
:10B69000002B14BFEE231F2304F15501C4F810142E
:10B6A000A4F8143404F214423846FFF797FD40BB67
:10B6B00094F82430002B14BFEE231F2304F2312111
:10B6C000C4F81814A4F81C3404F21C4207F13C001E
:10B6D000FFF784FDA8B9A369A4F848304FF480733C
:10B6E0000125A4F8503063692064014684F83C5079
:10B6F000636404F13C0204F15400FFF76DFF00B9EC
:10B700002570F8BD0E20FCE70720FAE7F8B50778AA
:10B7100004460D46002F00F001810023C0F82634B6
:10B72000C0F82934C388817000F226460BB1012984
:10B7300003D0E37943B1022D06D1636BABB1012293
:10B7400084F82D240820984704F2274304F22D4161
:10B7500013F8012B12B99942FAD117466B1E032B2D
:10B760004ED8DFE803F0050B0F1284F82D34EBE719
:10B77000A3791BB194F8243003B95FB9E3790BB115
:10B78000002F3FD1237A002B3ED1637A002B0CBFD0
:10B7900000250425636BA570002B37D0033D012DD8
:10B7A00034D8627992B394F82E247ABB84F830248A
:10B7B000012284F82F240720984704F13C05182221
:10B7C0000021284605F041FCE26A531E0121022BAC
:10B7D00028BF0A4684F8512094F8242084F83C10AD
:10B7E00032B1A36A581E022828BF0B4684F8523093
:10B7F000A378042B1CD8DFE803F0780D23365A0019
:10B800000025C7E70225C5E70325C3E7002384F821
:10B810002F34D2E7012384F831300023C4E91063C8
:10B82000C4F82034022384F83C308023A4F8483044
:10B83000A378002B5DD1636B002B6BD1002068E0F7
:10B840000223002A84F8313014BF0723032384F82D
:10B850003C302369A4F848300023C4F82034E3685E
:10B8600026646364E4E763696364A369A4F8483009
:10B8700012B1062384F83C306379B3B194F82E34C6
:10B880009BB994F8303483B1022384F850300421FA
:10B890002046FFF7A5FE0028CAD1052384F83130E1
:10B8A00004F58263C4F82034C2E70323F6E7E369B2
:10B8B0006364236AA4F8483012B1062384F83C304C
:10B8C000637983B194F82E346BB994F8303453B162
:10B8D000022384F8503004212046FFF781FE00281F
:10B8E000A6D10623DAE70423D8E7002384F8313011
:10B8F0009EE7D4F820142A4604F15400FFF76CFEAA
:10B9000038B994F8301094F85400FFF767FE002817
:10B9100091D0F8BD94F8310098478FE70820F8E7F8
:10B920000388112B10B50C460AD0262B1FD0102BE4
:10B9300005D1C37B012B02D18388A1F8243410BD2B
:10B940000022838881F82E24B1F824249A42F6D16B
:10B950000B79002BF3D101212046FFF7D7FE0028F9
:10B96000EDD0A36B002BEAD0BDE810401847037A56
:10B97000013B012BE3D8897805230131B1FBF3F3B7
:10B9800003EB8303C91AC9B2E6E775DF704776DFB8
:10B9900070477ADF70477BDF70470000034B1A88DF
:10B9A00082420CBF18460020704700BF5C2D00206B
:10B9B000024B9B6903B11847704700BF402D002020
:10B9C00073B585B22846FFF7E9FF044638B3174E32
:10B9D000027A337B9A420CD200F10A012846FFF723
:10B9E000D4FFF0B111281AD002B0BDE87040FFF7C3
:10B9F000DFBF00230372337C43B13B212846FFF7AE
:10BA0000C6FF30F0080301D0FFF7D2FF736933B1EE
:10BA100000228DF80420ADF8065001A8984702B026
:10BA200070BD237A01332372F9E700BF402D002057
:10BA300037B50B46497A0F4A79B9D2E901141D7A14
:10BA40000246002D18BF21465868FBF7DAFC78B192
:10BA500003B0BDE83040FFF7ABBF00211972536956
:10BA600033B10122ADF806008DF8042001A89847F3
:10BA700003B030BD402D00204B8802889A4212D876
:10BA800042889A420FD380888B8840F2F311884213
:10BA900094BF021A421A9A4205D80844984234BF09
:10BAA0000020012070470020704700000388122BFF
:10BAB00070B5014659D004D8102B1ED0112B44D09C
:10BAC00070BD502BFCD12F4BC288DB899A42F7D135
:10BAD000038A022BF4D186883046FFF75FFF0546C4
